{"contracts/LimitOrderProtocol.sol":{"LimitOrderProtocol":{"abi":[{"anonymous":false,"inputs":[{"indexed":true,"internalType":"uint256","name":"orderId","type":"uint256"},{"indexed":true,"internalType":"address","name":"acceptor","type":"address"},{"indexed":false,"internalType":"bytes32","name":"hashlock","type":"bytes32"},{"indexed":false,"internalType":"uint256","name":"timelock","type":"uint256"}],"name":"OrderAccepted","type":"event"},{"anonymous":false,"inputs":[{"indexed":true,"internalType":"uint256","name":"orderId","type":"uint256"},{"indexed":true,"internalType":"address","name":"creator","type":"address"}],"name":"OrderCancelled","type":"event"},{"anonymous":false,"inputs":[{"indexed":true,"internalType":"uint256","name":"orderId","type":"uint256"},{"indexed":true,"internalType":"address","name":"creator","type":"address"},{"indexed":false,"internalType":"string","name":"orderData","type":"string"}],"name":"OrderCreated","type":"event"},{"inputs":[{"internalType":"uint256","name":"orderId","type":"uint256"},{"internalType":"bytes32","name":"hashlock","type":"bytes32"},{"internalType":"uint256","name":"timelock","type":"uint256"}],"name":"acceptOrder","outputs":[],"stateMutability":"nonpayable","type":"function"},{"inputs":[{"internalType":"uint256","name":"orderId","type":"uint256"}],"name":"cancelOrder","outputs":[],"stateMutability":"nonpayable","type":"function"},{"inputs":[{"internalType":"string","name":"sourceChainId","type":"string"},{"internalType":"string","name":"destChainId","type":"string"},{"internalType":"string","name":"sourceWalletAddress","type":"string"},{"internalType":"string","name":"destWalletAddress","type":"string"},{"internalType":"string","name":"sourceToken","type":"string"},{"internalType":"string","name":"destToken","type":"string"},{"internalType":"uint256","name":"sourceAmount","type":"uint256"},{"internalType":"uint256","name":"destAmount","type":"uint256"},{"internalType":"uint256","name":"deadline","type":"uint256"}],"name":"createOrder","outputs":[],"stateMutability":"nonpayable","type":"function"},{"inputs":[],"name":"getActiveOrders","outputs":[{"internalType":"uint256[]","name":"","type":"uint256[]"}],"stateMutability":"view","type":"function"},{"inputs":[{"internalType":"uint256","name":"orderId","type":"uint256"}],"name":"getOrder","outputs":[{"components":[{"internalType":"string","name":"sourceChainId","type":"string"},{"internalType":"string","name":"destChainId","type":"string"},{"internalType":"string","name":"sourceWalletAddress","type":"string"},{"internalType":"string","name":"destWalletAddress","type":"string"},{"internalType":"string","name":"sourceToken","type":"string"},{"internalType":"string","name":"destToken","type":"string"},{"internalType":"uint256","name":"sourceAmount","type":"uint256"},{"internalType":"uint256","name":"destAmount","type":"uint256"},{"internalType":"uint256","name":"deadline","type":"uint256"},{"internalType":"address","name":"creator","type":"address"},{"internalType":"bool","name":"isActive","type":"bool"},{"internalType":"bool","name":"isAccepted","type":"bool"},{"internalType":"address","name":"acceptor","type":"address"},{"internalType":"bytes32","name":"hashlock","type":"bytes32"},{"internalType":"uint256","name":"timelock","type":"uint256"}],"internalType":"struct LimitOrderProtocol.Order","name":"","type":"tuple"}],"stateMutability":"view","type":"function"},{"inputs":[{"internalType":"address","name":"acceptor","type":"address"}],"name":"getOrdersByAcceptor","outputs":[{"internalType":"uint256[]","name":"","type":"uint256[]"}],"stateMutability":"view","type":"function"},{"inputs":[{"internalType":"address","name":"creator","type":"address"}],"name":"getOrdersByCreator","outputs":[{"internalType":"uint256[]","name":"","type":"uint256[]"}],"stateMutability":"view","type":"function"},{"inputs":[{"internalType":"uint256","name":"orderId","type":"uint256"}],"name":"isReadyForAcceptance","outputs":[{"internalType":"bool","name":"","type":"bool"}],"stateMutability":"view","type":"function"},{"inputs":[{"internalType":"uint256","name":"orderId","type":"uint256"}],"name":"isReadyForHTCL","outputs":[{"internalType":"bool","name":"","type":"bool"}],"stateMutability":"view","type":"function"},{"inputs":[],"name":"nextOrderId","outputs":[{"internalType":"uint256","name":"","type":"uint256"}],"stateMutability":"view","type":"function"},{"inputs":[{"internalType":"uint256","name":"","type":"uint256"}],"name":"orders","outputs":[{"internalType":"string","name":"sourceChainId","type":"string"},{"internalType":"string","name":"destChainId","type":"string"},{"internalType":"string","name":"sourceWalletAddress","type":"string"},{"internalType":"string","name":"destWalletAddress","type":"string"},{"internalType":"string","name":"sourceToken","type":"string"},{"internalType":"string","name":"destToken","type":"string"},{"internalType":"uint256","name":"sourceAmount","type":"uint256"},{"internalType":"uint256","name":"destAmount","type":"uint256"},{"internalType":"uint256","name":"deadline","type":"uint256"},{"internalType":"address","name":"creator","type":"address"},{"internalType":"bool","name":"isActive","type":"bool"},{"internalType":"bool","name":"isAccepted","type":"bool"},{"internalType":"address","name":"acceptor","type":"address"},{"internalType":"bytes32","name":"hashlock","type":"bytes32"},{"internalType":"uint256","name":"timelock","type":"uint256"}],"stateMutability":"view","type":"function"}],"evm":{"bytecode":{"linkReferences":{},"object":"6080806040523461001657611ec5908161001c8239f35b600080fdfe6080604052600436101561001257600080fd5b60003560e01c806286e68b14611a2c5780630fda1f551461190f578063268e8616146118515780632a58b33014611833578063514fcac7146116ea578063585944191461148a578063a85c38ef14611333578063bacb91e114611200578063c60729ec1461112d578063d09ef24114610ea05763ff28cb351461009457600080fd5b34610e9b57610120366003190112610e9b576004356001600160401b038111610e9b576100c5903690600401611c8f565b6024356001600160401b038111610e9b576100e4903690600401611c8f565b60449081356001600160401b038111610e9b57610105903690600401611c8f565b9060649283356001600160401b038111610e9b57610127903690600401611c8f565b906084356001600160401b038111610e9b57610147903690600401611c8f565b9060a4356001600160401b038111610e9b57610167903690600401611c8f565b95875115610e4c57845115610dfe57855115610da857835115610d545760c43515610cff5760e43515610cac5742610104351115610c5d575050600054946101ae86611cd6565b6000556040516101bd81611b49565b8781528460208201528560408201528360608201528260808201528160a082015260c43560c082015260e43560e0820152610104356101008201523361012082015260016101408201526000610160820152600061018082015260006101a082015260006101c082015286600052600160205260406000209080518051906001600160401b0382116108405781906102558554611b0f565b601f8111610c0d575b50602090601f8311600114610ba157600092610b96575b50508160011b916000199060031b1c19161782555b60208101518051906001600160401b0382116108405781906102af6001860154611b0f565b601f8111610b43575b50602090601f8311600114610ad157600092610ac6575b50508160011b916000199060031b1c19161760018301555b60408101518051906001600160401b03821161084057819061030c6002860154611b0f565b601f8111610a73575b50602090601f8311600114610a01576000926109f6575b50508160011b916000199060031b1c19161760028301555b60608101518051906001600160401b0382116108405781906103696003860154611b0f565b601f81116109a3575b50602090601f831160011461093157600092610926575b50508160011b916000199060031b1c19161760038301555b60808101518051906001600160401b0382116108405781906103c66004860154611b0f565b601f81116108d3575b50602090601f831160011461086157600092610856575b50508160011b916000199060031b1c19161760048301555b60a08101518051906001600160401b038211610840576104216005850154611b0f565b601f81116107f9575b50602090601f8311600114610774576101c061072c9a97948460c59b98956105629f9b9895600c95600092610769575b50508160011b916000199060031b1c19161760058501555b60c0810151600685015560e0810151600785015561010081015160088501556101208101516009850180546101408401516101608501516001600160b01b03199092166001600160a01b039485161790151560a01b60ff60a01b161790151560a81b60ff60a81b16179055610180820151600a860180546001600160a01b031916919092161790556101a0810151600b850155015191015561051560c435611dba565b9161052160e435611dba565b9361052e61010435611dba565b9660326040519d8e809b713d9139b7bab931b2a1b430b4b724b2111d1160711b602083015260208151948593019101611c2c565b89019661088b60f21b978860328201526e113232b9ba21b430b4b724b2111d1160891b603482015261059e825180936020604385019101611c2c565b018760438201527f22736f7572636557616c6c657441646472657373223a2200000000000000000060458201526105df825180936020605c85019101611c2c565b0186605c82015274113232b9ba2bb0b63632ba20b2323932b9b9911d1160591b605e820152610618825180936020607385019101611c2c565b018560738201526e1139b7bab931b2aa37b5b2b7111d1160891b607582015261064b825180936020608485019101611c2c565b018460848201526c113232b9ba2a37b5b2b7111d1160991b608682015261067c825180936020609385019101611c2c565b018360938201526f1139b7bab931b2a0b6b7bab73a111d1160811b60958201526106b082518093602060a585019101611c2c565b018260a58201526d113232b9ba20b6b7bab73a111d1160911b60a78201526106e282518093602060b585019101611c2c565b019060b58201526b113232b0b23634b732911d1160a11b60b782015261071282518093602060c385019101611c2c565b0161227d60f01b60c38201520360a5810185520183611b65565b7fc605452f703aebd186bba1ef02787b6fabb8bb7f8ca45bd2d05a18c24f1c9be9604051602081528061076433956020830190611c4f565b0390a3005b01519050388061045a565b906005850160005260206000209160005b601f19851681106107e1575061072c9a97946001856105629f9b9895600c956101c09560c59f9c99601f198116106107c8575b505050811b016005850155610472565b015160001960f88460031b161c191690553880806107b8565b91926020600181928685015181550194019201610785565b600585016000526020600020601f840160051c810160208510610839575b601f830160051c8201811061082d57505061042a565b60008155600101610817565b5080610817565b634e487b7160e01b600052604160045260246000fd5b0151905038806103e6565b9250600485016000526020600020906000935b601f19841685106108b8576001945083601f1981161061089f575b505050811b0160048301556103fe565b015160001960f88460031b161c1916905538808061088f565b81810151835560209485019460019093019290910190610874565b909150600485016000526020600020601f840160051c81016020851061091f575b90849392915b601f830160051c820181106109105750506103cf565b600081558594506001016108fa565b50806108f4565b015190503880610389565b9250600385016000526020600020906000935b601f1984168510610988576001945083601f1981161061096f575b505050811b0160038301556103a1565b015160001960f88460031b161c1916905538808061095f565b81810151835560209485019460019093019290910190610944565b909150600385016000526020600020601f840160051c8101602085106109ef575b90849392915b601f830160051c820181106109e0575050610372565b600081558594506001016109ca565b50806109c4565b01519050388061032c565b9250600285016000526020600020906000935b601f1984168510610a58576001945083601f19811610610a3f575b505050811b016002830155610344565b015160001960f88460031b161c19169055388080610a2f565b81810151835560209485019460019093019290910190610a14565b909150600285016000526020600020601f840160051c810160208510610abf575b90849392915b601f830160051c82018110610ab0575050610315565b60008155859450600101610a9a565b5080610a94565b0151905038806102cf565b9250600185016000526020600020906000935b601f1984168510610b28576001945083601f19811610610b0f575b505050811b0160018301556102e7565b015160001960f88460031b161c19169055388080610aff565b81810151835560209485019460019093019290910190610ae4565b909150600185016000526020600020601f840160051c810160208510610b8f575b90849392915b601f830160051c82018110610b805750506102b8565b60008155859450600101610b6a565b5080610b64565b015190503880610275565b9250846000526020600020906000935b601f1984168510610bf2576001945083601f19811610610bd9575b505050811b01825561028a565b015160001960f88460031b161c19169055388080610bcc565b81810151835560209485019460019093019290910190610bb1565b909150846000526020600020601f840160051c810160208510610c56575b90849392915b601f830160051c82018110610c4757505061025e565b60008155859450600101610c31565b5080610c2b565b906275726560e81b6084927f4c4f503a20446561646c696e65206d75737420626520696e20746865206675746040519362461bcd60e51b85526020600486015260236024860152840152820152fd5b90660207468616e20360cc1b6084927f4c4f503a204465737420616d6f756e74206d75737420626520677265617465726040519362461bcd60e51b85526020600486015260276024860152840152820152fd5b906806572207468616e20360bc1b6084927f4c4f503a20536f7572636520616d6f756e74206d7573742062652067726561746040519362461bcd60e51b85526020600486015260296024860152840152820152fd5b9067626520656d70747960c01b6084927f4c4f503a20446573742077616c6c657420616464726573732063616e6e6f74206040519362461bcd60e51b85526020600486015260286024860152840152820152fd5b90697420626520656d70747960b01b6084927f4c4f503a20536f757263652077616c6c657420616464726573732063616e6e6f6040519362461bcd60e51b855260206004860152602a6024860152840152820152fd5b9061747960f01b6084927f4c4f503a204465737420636861696e2049442063616e6e6f7420626520656d706040519362461bcd60e51b85526020600486015260226024860152840152820152fd5b90636d70747960e01b6084927f4c4f503a20536f7572636520636861696e2049442063616e6e6f7420626520656040519362461bcd60e51b855260206004860152602480860152840152820152fd5b600080fd5b34610e9b576020366003190112610e9b5760006101c0604051610ec281611b49565b60608152606060208201526060604082015260608082015260606080820152606060a08201528260c08201528260e08201528261010082015282610120820152826101408201528261016082015282610180820152826101a0820152015260043560005260016020526040600020600c60405191610f3f83611b49565b610f4881611b86565b8352610f5660018201611b86565b6020840152610f6760028201611b86565b6040840152610f7860038201611b86565b6060840152610f8960048201611b86565b6080840152610f9a60058201611b86565b60a0840152600681015460c0840152600781015460e0840152600881015461010084015260ff600982015460018060a01b038116610120860152818160a01c16151561014086015260a81c16151561016084015260018060a01b03600a82015416610180840152600b8101546101a084015201546101c08201526040518091602082526101c06110b161103b83516101e06020870152610200860190611c4f565b61109c611088611074611060602088015194601f1995868b83030160408c0152611c4f565b6040880151858a83030160608b0152611c4f565b6060870151848983030160808a0152611c4f565b6080860151838883030160a0890152611c4f565b9060a0850151908683030160c0870152611c4f565b9160c081015160e085015260e081015161010085015261010081015161012085015260018060a01b03610120820151166101408501526101408101511515610160850152610160810151151561018085015260018060a01b03610180820151166101a08501526101a08101518285015201516101e08301520390f35b34610e9b57602080600319360112610e9b576001600160a01b039060043582811690819003610e9b576000549061116382611d5e565b9360009360005b8481106111bd57868661117c81611d5e565b9160005b82811061119957604051806111958682611ad4565b0390f35b806111a76111b89284611d90565b516111b28287611d90565b52611cd6565b611180565b80600052600182528383600a6040600020015416146111e5575b6111e090611cd6565b61116a565b946111f881876111b26111e0948b611d90565b9590506111d7565b34610e9b576020366003190112610e9b576004356000526001602052602060406000206040519061123082611b49565b61123981611b86565b825261124760018201611b86565b8383015261125760028201611b86565b604083015261126860038201611b86565b606083015261127960048201611b86565b608083015261128a60058201611b86565b60a0830152600681015460c0830152600781015460e0830152600881015490816101008401526009810154926101c0600c60018060a01b039384871661012085015260ff808860a01c161515978861014087015260a81c1615948515610160860152600a82015416610180850152600b8101546101a085015201549101528261132b575b5081611320575b506040519015158152f35b905042111582611315565b91508361130e565b34610e9b576020366003190112610e9b576004356000526001602052604060002061135d81611b86565b61136960018301611b86565b9161137660028201611b86565b61138260038301611b86565b9161138f60048201611b86565b9261139c60058301611b86565b6006830154946007840154600885015490600986015493600160a01b600190039384600a8901541696600b89015498600c0154996040519d8e809e6101e080835282016113e891611c4f565b9080820390602001526113fa91611c4f565b8d810360408f015261140b91611c4f565b8c810360608e015261141c91611c4f565b8b810360808d015261142d91611c4f565b8a810360a08c015261143e91611c4f565b9760c08a015260e089015261010088015281166101208701528060a01c60ff16151561014087015260a81c60ff1615156101608601526101808501526101a08401526101c08301520390f35b34610e9b576060366003190112610e9b576004356024908135916044803591836000526020916001835260018060a01b0360096040600020015416156116a85784600052600183526114e960ff60096040600020015460a01c16611cfb565b8460005260018352600860406000200154421161166d578460005260018352604060002091600983019182549160ff8360a81c1661162b5788156115e9574287111561159b57505091600c918593600160a81b9060ff60a81b1916179055600a8101336bffffffffffffffffffffffff60a01b82541617905586600b82015501556040519384528301527f90efb7a1c1eab91f56697d1041b20b073759777c18c0da45c84920971e072b9460403393a3005b7f4c4f503a2054696d656c6f636b206d75737420626520696e2074686520667574608492602388936040519462461bcd60e51b865260048601528401528201526275726560e81b6064820152fd5b7f4c4f503a20486173686c6f636b2063616e6e6f74206265207a65726f00000000606492601c88936040519462461bcd60e51b86526004860152840152820152fd5b7f4c4f503a204f7264657220616c72656164792061636365707465640000000000606492601b88936040519462461bcd60e51b86526004860152840152820152fd5b606493506016751313d40e8813dc99195c881a185cc8195e1c1a5c995960521b926040519462461bcd60e51b86526004860152840152820152fd5b6064935060197f4c4f503a204f7264657220646f6573206e6f7420657869737400000000000000926040519462461bcd60e51b86526004860152840152820152fd5b34610e9b57602080600319360112610e9b5760043560008181526001835260409020600901549091906001600160a01b031633036117e157816000526001815261174160ff60096040600020015460a01c16611cfb565b816000526001815260096040600020019081549060ff8260a81c16611793575060ff60a01b1916905533907fc0362da6f2ff36b382b34aec0814f6b3cdf89f5ef282a1d1f114d0c0b036d596600080a3005b6084906040519062461bcd60e51b82526004820152602160248201527f4c4f503a2043616e6e6f742063616e63656c206163636570746564206f7264656044820152603960f91b6064820152fd5b6084906040519062461bcd60e51b82526004820152602560248201527f4c4f503a204f6e6c79206f726465722063726561746f722063616e2063616c6c604482015264207468697360d81b6064820152fd5b34610e9b576000366003190112610e9b576020600054604051908152f35b34610e9b57602080600319360112610e9b576001600160a01b039060043582811690819003610e9b576000549061188782611d5e565b9360009360005b8481106118cc5786866118a081611d5e565b9160005b8281106118b957604051806111958682611ad4565b806111a76118c79284611d90565b6118a4565b8060005260018252838360096040600020015416146118f4575b6118ef90611cd6565b61188e565b9461190781876111b26118ef948b611d90565b9590506118e6565b34610e9b576020366003190112610e9b5760043560005260016020526020604060002060405161193e81611b49565b61194782611b86565b815261195560018301611b86565b8382015261196560028301611b86565b604082015261197660038301611b86565b606082015261198760048301611b86565b608082015261199860058301611b86565b60a0820152600682015460c0820152600782015460e082015260088201546101008201526009820154906101c0600c60018060a01b039485851661012085015260ff808660a01c161515958661014087015260a81c1615159586610160860152600a82015416610180850152600b8101546101a0850152015491015281611a2457506040519015158152f35b905082611315565b34610e9b576000366003190112610e9b57600054611a4981611d5e565b9060009060005b818110611a8e575050611a6281611d5e565b9160005b828110611a7b57604051806111958682611ad4565b806111a7611a899284611d90565b611a66565b80600052600160205260ff60096040600020015460a01c16611ab9575b611ab490611cd6565b611a50565b91611acc81846111b2611ab49488611d90565b929050611aab565b6020908160408183019282815285518094520193019160005b828110611afb575050505090565b835185529381019392810192600101611aed565b90600182811c92168015611b3f575b6020831014611b2957565b634e487b7160e01b600052602260045260246000fd5b91607f1691611b1e565b6101e081019081106001600160401b0382111761084057604052565b90601f801991011681019081106001600160401b0382111761084057604052565b9060405191826000825492611b9a84611b0f565b908184526001948581169081600014611c095750600114611bc6575b5050611bc492500383611b65565b565b9093915060005260209081600020936000915b818310611bf1575050611bc493508201013880611bb6565b85548884018501529485019487945091830191611bd9565b915050611bc494506020925060ff191682840152151560051b8201013880611bb6565b60005b838110611c3f5750506000910152565b8181015183820152602001611c2f565b90602091611c6881518092818552858086019101611c2c565b601f01601f1916010190565b6001600160401b03811161084057601f01601f191660200190565b81601f82011215610e9b57803590611ca682611c74565b92611cb46040519485611b65565b82845260208383010111610e9b57816000926020809301838601378301015290565b6000198114611ce55760010190565b634e487b7160e01b600052601160045260246000fd5b15611d0257565b60405162461bcd60e51b815260206004820152601860248201527f4c4f503a204f72646572206973206e6f742061637469766500000000000000006044820152606490fd5b6001600160401b0381116108405760051b60200190565b90611d6882611d47565b611d756040519182611b65565b8281528092611d86601f1991611d47565b0190602036910137565b8051821015611da45760209160051b010190565b634e487b7160e01b600052603260045260246000fd5b8015611e6157600081805b611e4d5750611dd381611c74565b90611de16040519283611b65565b808252601f19611df082611c74565b013660208401375b80928015611e46576000198201918211611ce5578193600a926030908484068201809211611ce55785511115611da45760f81b6001600160f81b03191660001a908401601f01530491611df8565b5050905090565b90611e59600a91611cd6565b910480611dc5565b50604051604081018181106001600160401b038211176108405760405260018152600360fc1b60208201529056fea26469706673582212201a2b99b4046fa6c72edb70bce9e7cee16f70b2908d5d44f3840664ec19ceea0564736f6c63430008130033","opcodes":"PUSH1 0x80 DUP1 PUSH1 0x40 MSTORE CALLVALUE PUSH2 0x16 JUMPI PUSH2 0x1EC5 SWAP1 DUP2 PUSH2 0x1C DUP3 CODECOPY RETURN JUMPDEST PUSH1 0x0 DUP1 REVERT INVALID PUSH1 0x80 PUSH1 0x40 MSTORE PUSH1 0x4 CALLDATASIZE LT ISZERO PUSH2 0x12 JUMPI PUSH1 0x0 DUP1 REVERT JUMPDEST PUSH1 0x0 CALLDATALOAD PUSH1 0xE0 SHR DUP1 PUSH3 0x86E68B EQ PUSH2 0x1A2C JUMPI DUP1 PUSH4 0xFDA1F55 EQ PUSH2 0x190F JUMPI DUP1 PUSH4 0x268E8616 EQ PUSH2 0x1851 JUMPI DUP1 PUSH4 0x2A58B330 EQ PUSH2 0x1833 JUMPI DUP1 PUSH4 0x514FCAC7 EQ PUSH2 0x16EA JUMPI DUP1 PUSH4 0x58594419 EQ PUSH2 0x148A JUMPI DUP1 PUSH4 0xA85C38EF EQ PUSH2 0x1333 JUMPI DUP1 PUSH4 0xBACB91E1 EQ PUSH2 0x1200 JUMPI DUP1 PUSH4 0xC60729EC EQ PUSH2 0x112D JUMPI DUP1 PUSH4 0xD09EF241 EQ PUSH2 0xEA0 JUMPI PUSH4 0xFF28CB35 EQ PUSH2 0x94 JUMPI PUSH1 0x0 DUP1 REVERT JUMPDEST CALLVALUE PUSH2 0xE9B JUMPI PUSH2 0x120 CALLDATASIZE PUSH1 0x3 NOT ADD SLT PUSH2 0xE9B JUMPI PUSH1 0x4 CALLDATALOAD PUSH1 0x1 PUSH1 0x1 PUSH1 0x40 SHL SUB DUP2 GT PUSH2 0xE9B JUMPI PUSH2 0xC5 SWAP1 CALLDATASIZE SWAP1 PUSH1 0x4 ADD PUSH2 0x1C8F JUMP JUMPDEST PUSH1 0x24 CALLDATALOAD PUSH1 0x1 PUSH1 0x1 PUSH1 0x40 SHL SUB DUP2 GT PUSH2 0xE9B JUMPI PUSH2 0xE4 SWAP1 CALLDATASIZE SWAP1 PUSH1 0x4 ADD PUSH2 0x1C8F JUMP JUMPDEST PUSH1 0x44 SWAP1 DUP2 CALLDATALOAD PUSH1 0x1 PUSH1 0x1 PUSH1 0x40 SHL SUB DUP2 GT PUSH2 0xE9B JUMPI PUSH2 0x105 SWAP1 CALLDATASIZE SWAP1 PUSH1 0x4 ADD PUSH2 0x1C8F JUMP JUMPDEST SWAP1 PUSH1 0x64 SWAP3 DUP4 CALLDATALOAD PUSH1 0x1 PUSH1 0x1 PUSH1 0x40 SHL SUB DUP2 GT PUSH2 0xE9B JUMPI PUSH2 0x127 SWAP1 CALLDATASIZE SWAP1 PUSH1 0x4 ADD PUSH2 0x1C8F JUMP JUMPDEST SWAP1 PUSH1 0x84 CALLDATALOAD PUSH1 0x1 PUSH1 0x1 PUSH1 0x40 SHL SUB DUP2 GT PUSH2 0xE9B JUMPI PUSH2 0x147 SWAP1 CALLDATASIZE SWAP1 PUSH1 0x4 ADD PUSH2 0x1C8F JUMP JUMPDEST SWAP1 PUSH1 0xA4 CALLDATALOAD PUSH1 0x1 PUSH1 0x1 PUSH1 0x40 SHL SUB DUP2 GT PUSH2 0xE9B JUMPI PUSH2 0x167 SWAP1 CALLDATASIZE SWAP1 PUSH1 0x4 ADD PUSH2 0x1C8F JUMP JUMPDEST SWAP6 DUP8 MLOAD ISZERO PUSH2 0xE4C JUMPI DUP5 MLOAD ISZERO PUSH2 0xDFE JUMPI DUP6 MLOAD ISZERO PUSH2 0xDA8 JUMPI DUP4 MLOAD ISZERO PUSH2 0xD54 JUMPI PUSH1 0xC4 CALLDATALOAD ISZERO PUSH2 0xCFF JUMPI PUSH1 0xE4 CALLDATALOAD ISZERO PUSH2 0xCAC JUMPI TIMESTAMP PUSH2 0x104 CALLDATALOAD GT ISZERO PUSH2 0xC5D JUMPI POP POP PUSH1 0x0 SLOAD SWAP5 PUSH2 0x1AE DUP7 PUSH2 0x1CD6 JUMP JUMPDEST PUSH1 0x0 SSTORE PUSH1 0x40 MLOAD PUSH2 0x1BD DUP2 PUSH2 0x1B49 JUMP JUMPDEST DUP8 DUP2 MSTORE DUP5 PUSH1 0x20 DUP3 ADD MSTORE DUP6 PUSH1 0x40 DUP3 ADD MSTORE DUP4 PUSH1 0x60 DUP3 ADD MSTORE DUP3 PUSH1 0x80 DUP3 ADD MSTORE DUP2 PUSH1 0xA0 DUP3 ADD MSTORE PUSH1 0xC4 CALLDATALOAD PUSH1 0xC0 DUP3 ADD MSTORE PUSH1 0xE4 CALLDATALOAD PUSH1 0xE0 DUP3 ADD MSTORE PUSH2 0x104 CALLDATALOAD PUSH2 0x100 DUP3 ADD MSTORE CALLER PUSH2 0x120 DUP3 ADD MSTORE PUSH1 0x1 PUSH2 0x140 DUP3 ADD MSTORE PUSH1 0x0 PUSH2 0x160 DUP3 ADD MSTORE PUSH1 0x0 PUSH2 0x180 DUP3 ADD MSTORE PUSH1 0x0 PUSH2 0x1A0 DUP3 ADD MSTORE PUSH1 0x0 PUSH2 0x1C0 DUP3 ADD MSTORE DUP7 PUSH1 0x0 MSTORE PUSH1 0x1 PUSH1 0x20 MSTORE PUSH1 0x40 PUSH1 0x0 KECCAK256 SWAP1 DUP1 MLOAD DUP1 MLOAD SWAP1 PUSH1 0x1 PUSH1 0x1 PUSH1 0x40 SHL SUB DUP3 GT PUSH2 0x840 JUMPI DUP2 SWAP1 PUSH2 0x255 DUP6 SLOAD PUSH2 0x1B0F JUMP JUMPDEST PUSH1 0x1F DUP2 GT PUSH2 0xC0D JUMPI JUMPDEST POP PUSH1 0x20 SWAP1 PUSH1 0x1F DUP4 GT PUSH1 0x1 EQ PUSH2 0xBA1 JUMPI PUSH1 0x0 SWAP3 PUSH2 0xB96 JUMPI JUMPDEST POP POP DUP2 PUSH1 0x1 SHL SWAP2 PUSH1 0x0 NOT SWAP1 PUSH1 0x3 SHL SHR NOT AND OR DUP3 SSTORE JUMPDEST PUSH1 0x20 DUP2 ADD MLOAD DUP1 MLOAD SWAP1 PUSH1 0x1 PUSH1 0x1 PUSH1 0x40 SHL SUB DUP3 GT PUSH2 0x840 JUMPI DUP2 SWAP1 PUSH2 0x2AF PUSH1 0x1 DUP7 ADD SLOAD PUSH2 0x1B0F JUMP JUMPDEST PUSH1 0x1F DUP2 GT PUSH2 0xB43 JUMPI JUMPDEST POP PUSH1 0x20 SWAP1 PUSH1 0x1F DUP4 GT PUSH1 0x1 EQ PUSH2 0xAD1 JUMPI PUSH1 0x0 SWAP3 PUSH2 0xAC6 JUMPI JUMPDEST POP POP DUP2 PUSH1 0x1 SHL SWAP2 PUSH1 0x0 NOT SWAP1 PUSH1 0x3 SHL SHR NOT AND OR PUSH1 0x1 DUP4 ADD SSTORE JUMPDEST PUSH1 0x40 DUP2 ADD MLOAD DUP1 MLOAD SWAP1 PUSH1 0x1 PUSH1 0x1 PUSH1 0x40 SHL SUB DUP3 GT PUSH2 0x840 JUMPI DUP2 SWAP1 PUSH2 0x30C PUSH1 0x2 DUP7 ADD SLOAD PUSH2 0x1B0F JUMP JUMPDEST PUSH1 0x1F DUP2 GT PUSH2 0xA73 JUMPI JUMPDEST POP PUSH1 0x20 SWAP1 PUSH1 0x1F DUP4 GT PUSH1 0x1 EQ PUSH2 0xA01 JUMPI PUSH1 0x0 SWAP3 PUSH2 0x9F6 JUMPI JUMPDEST POP POP DUP2 PUSH1 0x1 SHL SWAP2 PUSH1 0x0 NOT SWAP1 PUSH1 0x3 SHL SHR NOT AND OR PUSH1 0x2 DUP4 ADD SSTORE JUMPDEST PUSH1 0x60 DUP2 ADD MLOAD DUP1 MLOAD SWAP1 PUSH1 0x1 PUSH1 0x1 PUSH1 0x40 SHL SUB DUP3 GT PUSH2 0x840 JUMPI DUP2 SWAP1 PUSH2 0x369 PUSH1 0x3 DUP7 ADD SLOAD PUSH2 0x1B0F JUMP JUMPDEST PUSH1 0x1F DUP2 GT PUSH2 0x9A3 JUMPI JUMPDEST POP PUSH1 0x20 SWAP1 PUSH1 0x1F DUP4 GT PUSH1 0x1 EQ PUSH2 0x931 JUMPI PUSH1 0x0 SWAP3 PUSH2 0x926 JUMPI JUMPDEST POP POP DUP2 PUSH1 0x1 SHL SWAP2 PUSH1 0x0 NOT SWAP1 PUSH1 0x3 SHL SHR NOT AND OR PUSH1 0x3 DUP4 ADD SSTORE JUMPDEST PUSH1 0x80 DUP2 ADD MLOAD DUP1 MLOAD SWAP1 PUSH1 0x1 PUSH1 0x1 PUSH1 0x40 SHL SUB DUP3 GT PUSH2 0x840 JUMPI DUP2 SWAP1 PUSH2 0x3C6 PUSH1 0x4 DUP7 ADD SLOAD PUSH2 0x1B0F JUMP JUMPDEST PUSH1 0x1F DUP2 GT PUSH2 0x8D3 JUMPI JUMPDEST POP PUSH1 0x20 SWAP1 PUSH1 0x1F DUP4 GT PUSH1 0x1 EQ PUSH2 0x861 JUMPI PUSH1 0x0 SWAP3 PUSH2 0x856 JUMPI JUMPDEST POP POP DUP2 PUSH1 0x1 SHL SWAP2 PUSH1 0x0 NOT SWAP1 PUSH1 0x3 SHL SHR NOT AND OR PUSH1 0x4 DUP4 ADD SSTORE JUMPDEST PUSH1 0xA0 DUP2 ADD MLOAD DUP1 MLOAD SWAP1 PUSH1 0x1 PUSH1 0x1 PUSH1 0x40 SHL SUB DUP3 GT PUSH2 0x840 JUMPI PUSH2 0x421 PUSH1 0x5 DUP6 ADD SLOAD PUSH2 0x1B0F JUMP JUMPDEST PUSH1 0x1F DUP2 GT PUSH2 0x7F9 JUMPI JUMPDEST POP PUSH1 0x20 SWAP1 PUSH1 0x1F DUP4 GT PUSH1 0x1 EQ PUSH2 0x774 JUMPI PUSH2 0x1C0 PUSH2 0x72C SWAP11 SWAP8 SWAP5 DUP5 PUSH1 0xC5 SWAP12 SWAP9 SWAP6 PUSH2 0x562 SWAP16 SWAP12 SWAP9 SWAP6 PUSH1 0xC SWAP6 PUSH1 0x0 SWAP3 PUSH2 0x769 JUMPI JUMPDEST POP POP DUP2 PUSH1 0x1 SHL SWAP2 PUSH1 0x0 NOT SWAP1 PUSH1 0x3 SHL SHR NOT AND OR PUSH1 0x5 DUP6 ADD SSTORE JUMPDEST PUSH1 0xC0 DUP2 ADD MLOAD PUSH1 0x6 DUP6 ADD SSTORE PUSH1 0xE0 DUP2 ADD MLOAD PUSH1 0x7 DUP6 ADD SSTORE PUSH2 0x100 DUP2 ADD MLOAD PUSH1 0x8 DUP6 ADD SSTORE PUSH2 0x120 DUP2 ADD MLOAD PUSH1 0x9 DUP6 ADD DUP1 SLOAD PUSH2 0x140 DUP5 ADD MLOAD PUSH2 0x160 DUP6 ADD MLOAD PUSH1 0x1 PUSH1 0x1 PUSH1 0xB0 SHL SUB NOT SWAP1 SWAP3 AND PUSH1 0x1 PUSH1 0x1 PUSH1 0xA0 SHL SUB SWAP5 DUP6 AND OR SWAP1 ISZERO ISZERO PUSH1 0xA0 SHL PUSH1 0xFF PUSH1 0xA0 SHL AND OR SWAP1 ISZERO ISZERO PUSH1 0xA8 SHL PUSH1 0xFF PUSH1 0xA8 SHL AND OR SWAP1 SSTORE PUSH2 0x180 DUP3 ADD MLOAD PUSH1 0xA DUP7 ADD DUP1 SLOAD PUSH1 0x1 PUSH1 0x1 PUSH1 0xA0 SHL SUB NOT AND SWAP2 SWAP1 SWAP3 AND OR SWAP1 SSTORE PUSH2 0x1A0 DUP2 ADD MLOAD PUSH1 0xB DUP6 ADD SSTORE ADD MLOAD SWAP2 ADD SSTORE PUSH2 0x515 PUSH1 0xC4 CALLDATALOAD PUSH2 0x1DBA JUMP JUMPDEST SWAP2 PUSH2 0x521 PUSH1 0xE4 CALLDATALOAD PUSH2 0x1DBA JUMP JUMPDEST SWAP4 PUSH2 0x52E PUSH2 0x104 CALLDATALOAD PUSH2 0x1DBA JUMP JUMPDEST SWAP7 PUSH1 0x32 PUSH1 0x40 MLOAD SWAP14 DUP15 DUP1 SWAP12 PUSH18 0x3D9139B7BAB931B2A1B430B4B724B2111D11 PUSH1 0x71 SHL PUSH1 0x20 DUP4 ADD MSTORE PUSH1 0x20 DUP2 MLOAD SWAP5 DUP6 SWAP4 ADD SWAP2 ADD PUSH2 0x1C2C JUMP JUMPDEST DUP10 ADD SWAP7 PUSH2 0x88B PUSH1 0xF2 SHL SWAP8 DUP9 PUSH1 0x32 DUP3 ADD MSTORE PUSH15 0x113232B9BA21B430B4B724B2111D11 PUSH1 0x89 SHL PUSH1 0x34 DUP3 ADD MSTORE PUSH2 0x59E DUP3 MLOAD DUP1 SWAP4 PUSH1 0x20 PUSH1 0x43 DUP6 ADD SWAP2 ADD PUSH2 0x1C2C JUMP JUMPDEST ADD DUP8 PUSH1 0x43 DUP3 ADD MSTORE PUSH32 0x22736F7572636557616C6C657441646472657373223A22000000000000000000 PUSH1 0x45 DUP3 ADD MSTORE PUSH2 0x5DF DUP3 MLOAD DUP1 SWAP4 PUSH1 0x20 PUSH1 0x5C DUP6 ADD SWAP2 ADD PUSH2 0x1C2C JUMP JUMPDEST ADD DUP7 PUSH1 0x5C DUP3 ADD MSTORE PUSH21 0x113232B9BA2BB0B63632BA20B2323932B9B9911D11 PUSH1 0x59 SHL PUSH1 0x5E DUP3 ADD MSTORE PUSH2 0x618 DUP3 MLOAD DUP1 SWAP4 PUSH1 0x20 PUSH1 0x73 DUP6 ADD SWAP2 ADD PUSH2 0x1C2C JUMP JUMPDEST ADD DUP6 PUSH1 0x73 DUP3 ADD MSTORE PUSH15 0x1139B7BAB931B2AA37B5B2B7111D11 PUSH1 0x89 SHL PUSH1 0x75 DUP3 ADD MSTORE PUSH2 0x64B DUP3 MLOAD DUP1 SWAP4 PUSH1 0x20 PUSH1 0x84 DUP6 ADD SWAP2 ADD PUSH2 0x1C2C JUMP JUMPDEST ADD DUP5 PUSH1 0x84 DUP3 ADD MSTORE PUSH13 0x113232B9BA2A37B5B2B7111D11 PUSH1 0x99 SHL PUSH1 0x86 DUP3 ADD MSTORE PUSH2 0x67C DUP3 MLOAD DUP1 SWAP4 PUSH1 0x20 PUSH1 0x93 DUP6 ADD SWAP2 ADD PUSH2 0x1C2C JUMP JUMPDEST ADD DUP4 PUSH1 0x93 DUP3 ADD MSTORE PUSH16 0x1139B7BAB931B2A0B6B7BAB73A111D11 PUSH1 0x81 SHL PUSH1 0x95 DUP3 ADD MSTORE PUSH2 0x6B0 DUP3 MLOAD DUP1 SWAP4 PUSH1 0x20 PUSH1 0xA5 DUP6 ADD SWAP2 ADD PUSH2 0x1C2C JUMP JUMPDEST ADD DUP3 PUSH1 0xA5 DUP3 ADD MSTORE PUSH14 0x113232B9BA20B6B7BAB73A111D11 PUSH1 0x91 SHL PUSH1 0xA7 DUP3 ADD MSTORE PUSH2 0x6E2 DUP3 MLOAD DUP1 SWAP4 PUSH1 0x20 PUSH1 0xB5 DUP6 ADD SWAP2 ADD PUSH2 0x1C2C JUMP JUMPDEST ADD SWAP1 PUSH1 0xB5 DUP3 ADD MSTORE PUSH12 0x113232B0B23634B732911D11 PUSH1 0xA1 SHL PUSH1 0xB7 DUP3 ADD MSTORE PUSH2 0x712 DUP3 MLOAD DUP1 SWAP4 PUSH1 0x20 PUSH1 0xC3 DUP6 ADD SWAP2 ADD PUSH2 0x1C2C JUMP JUMPDEST ADD PUSH2 0x227D PUSH1 0xF0 SHL PUSH1 0xC3 DUP3 ADD MSTORE SUB PUSH1 0xA5 DUP2 ADD DUP6 MSTORE ADD DUP4 PUSH2 0x1B65 JUMP JUMPDEST PUSH32 0xC605452F703AEBD186BBA1EF02787B6FABB8BB7F8CA45BD2D05A18C24F1C9BE9 PUSH1 0x40 MLOAD PUSH1 0x20 DUP2 MSTORE DUP1 PUSH2 0x764 CALLER SWAP6 PUSH1 0x20 DUP4 ADD SWAP1 PUSH2 0x1C4F JUMP JUMPDEST SUB SWAP1 LOG3 STOP JUMPDEST ADD MLOAD SWAP1 POP CODESIZE DUP1 PUSH2 0x45A JUMP JUMPDEST SWAP1 PUSH1 0x5 DUP6 ADD PUSH1 0x0 MSTORE PUSH1 0x20 PUSH1 0x0 KECCAK256 SWAP2 PUSH1 0x0 JUMPDEST PUSH1 0x1F NOT DUP6 AND DUP2 LT PUSH2 0x7E1 JUMPI POP PUSH2 0x72C SWAP11 SWAP8 SWAP5 PUSH1 0x1 DUP6 PUSH2 0x562 SWAP16 SWAP12 SWAP9 SWAP6 PUSH1 0xC SWAP6 PUSH2 0x1C0 SWAP6 PUSH1 0xC5 SWAP16 SWAP13 SWAP10 PUSH1 0x1F NOT DUP2 AND LT PUSH2 0x7C8 JUMPI JUMPDEST POP POP POP DUP2 SHL ADD PUSH1 0x5 DUP6 ADD SSTORE PUSH2 0x472 JUMP JUMPDEST ADD MLOAD PUSH1 0x0 NOT PUSH1 0xF8 DUP5 PUSH1 0x3 SHL AND SHR NOT AND SWAP1 SSTORE CODESIZE DUP1 DUP1 PUSH2 0x7B8 JUMP JUMPDEST SWAP2 SWAP3 PUSH1 0x20 PUSH1 0x1 DUP2 SWAP3 DUP7 DUP6 ADD MLOAD DUP2 SSTORE ADD SWAP5 ADD SWAP3 ADD PUSH2 0x785 JUMP JUMPDEST PUSH1 0x5 DUP6 ADD PUSH1 0x0 MSTORE PUSH1 0x20 PUSH1 0x0 KECCAK256 PUSH1 0x1F DUP5 ADD PUSH1 0x5 SHR DUP2 ADD PUSH1 0x20 DUP6 LT PUSH2 0x839 JUMPI JUMPDEST PUSH1 0x1F DUP4 ADD PUSH1 0x5 SHR DUP3 ADD DUP2 LT PUSH2 0x82D JUMPI POP POP PUSH2 0x42A JUMP JUMPDEST PUSH1 0x0 DUP2 SSTORE PUSH1 0x1 ADD PUSH2 0x817 JUMP JUMPDEST POP DUP1 PUSH2 0x817 JUMP JUMPDEST PUSH4 0x4E487B71 PUSH1 0xE0 SHL PUSH1 0x0 MSTORE PUSH1 0x41 PUSH1 0x4 MSTORE PUSH1 0x24 PUSH1 0x0 REVERT JUMPDEST ADD MLOAD SWAP1 POP CODESIZE DUP1 PUSH2 0x3E6 JUMP JUMPDEST SWAP3 POP PUSH1 0x4 DUP6 ADD PUSH1 0x0 MSTORE PUSH1 0x20 PUSH1 0x0 KECCAK256 SWAP1 PUSH1 0x0 SWAP4 JUMPDEST PUSH1 0x1F NOT DUP5 AND DUP6 LT PUSH2 0x8B8 JUMPI PUSH1 0x1 SWAP5 POP DUP4 PUSH1 0x1F NOT DUP2 AND LT PUSH2 0x89F JUMPI JUMPDEST POP POP POP DUP2 SHL ADD PUSH1 0x4 DUP4 ADD SSTORE PUSH2 0x3FE JUMP JUMPDEST ADD MLOAD PUSH1 0x0 NOT PUSH1 0xF8 DUP5 PUSH1 0x3 SHL AND SHR NOT AND SWAP1 SSTORE CODESIZE DUP1 DUP1 PUSH2 0x88F JUMP JUMPDEST DUP2 DUP2 ADD MLOAD DUP4 SSTORE PUSH1 0x20 SWAP5 DUP6 ADD SWAP5 PUSH1 0x1 SWAP1 SWAP4 ADD SWAP3 SWAP1 SWAP2 ADD SWAP1 PUSH2 0x874 JUMP JUMPDEST SWAP1 SWAP2 POP PUSH1 0x4 DUP6 ADD PUSH1 0x0 MSTORE PUSH1 0x20 PUSH1 0x0 KECCAK256 PUSH1 0x1F DUP5 ADD PUSH1 0x5 SHR DUP2 ADD PUSH1 0x20 DUP6 LT PUSH2 0x91F JUMPI JUMPDEST SWAP1 DUP5 SWAP4 SWAP3 SWAP2 JUMPDEST PUSH1 0x1F DUP4 ADD PUSH1 0x5 SHR DUP3 ADD DUP2 LT PUSH2 0x910 JUMPI POP POP PUSH2 0x3CF JUMP JUMPDEST PUSH1 0x0 DUP2 SSTORE DUP6 SWAP5 POP PUSH1 0x1 ADD PUSH2 0x8FA JUMP JUMPDEST POP DUP1 PUSH2 0x8F4 JUMP JUMPDEST ADD MLOAD SWAP1 POP CODESIZE DUP1 PUSH2 0x389 JUMP JUMPDEST SWAP3 POP PUSH1 0x3 DUP6 ADD PUSH1 0x0 MSTORE PUSH1 0x20 PUSH1 0x0 KECCAK256 SWAP1 PUSH1 0x0 SWAP4 JUMPDEST PUSH1 0x1F NOT DUP5 AND DUP6 LT PUSH2 0x988 JUMPI PUSH1 0x1 SWAP5 POP DUP4 PUSH1 0x1F NOT DUP2 AND LT PUSH2 0x96F JUMPI JUMPDEST POP POP POP DUP2 SHL ADD PUSH1 0x3 DUP4 ADD SSTORE PUSH2 0x3A1 JUMP JUMPDEST ADD MLOAD PUSH1 0x0 NOT PUSH1 0xF8 DUP5 PUSH1 0x3 SHL AND SHR NOT AND SWAP1 SSTORE CODESIZE DUP1 DUP1 PUSH2 0x95F JUMP JUMPDEST DUP2 DUP2 ADD MLOAD DUP4 SSTORE PUSH1 0x20 SWAP5 DUP6 ADD SWAP5 PUSH1 0x1 SWAP1 SWAP4 ADD SWAP3 SWAP1 SWAP2 ADD SWAP1 PUSH2 0x944 JUMP JUMPDEST SWAP1 SWAP2 POP PUSH1 0x3 DUP6 ADD PUSH1 0x0 MSTORE PUSH1 0x20 PUSH1 0x0 KECCAK256 PUSH1 0x1F DUP5 ADD PUSH1 0x5 SHR DUP2 ADD PUSH1 0x20 DUP6 LT PUSH2 0x9EF JUMPI JUMPDEST SWAP1 DUP5 SWAP4 SWAP3 SWAP2 JUMPDEST PUSH1 0x1F DUP4 ADD PUSH1 0x5 SHR DUP3 ADD DUP2 LT PUSH2 0x9E0 JUMPI POP POP PUSH2 0x372 JUMP JUMPDEST PUSH1 0x0 DUP2 SSTORE DUP6 SWAP5 POP PUSH1 0x1 ADD PUSH2 0x9CA JUMP JUMPDEST POP DUP1 PUSH2 0x9C4 JUMP JUMPDEST ADD MLOAD SWAP1 POP CODESIZE DUP1 PUSH2 0x32C JUMP JUMPDEST SWAP3 POP PUSH1 0x2 DUP6 ADD PUSH1 0x0 MSTORE PUSH1 0x20 PUSH1 0x0 KECCAK256 SWAP1 PUSH1 0x0 SWAP4 JUMPDEST PUSH1 0x1F NOT DUP5 AND DUP6 LT PUSH2 0xA58 JUMPI PUSH1 0x1 SWAP5 POP DUP4 PUSH1 0x1F NOT DUP2 AND LT PUSH2 0xA3F JUMPI JUMPDEST POP POP POP DUP2 SHL ADD PUSH1 0x2 DUP4 ADD SSTORE PUSH2 0x344 JUMP JUMPDEST ADD MLOAD PUSH1 0x0 NOT PUSH1 0xF8 DUP5 PUSH1 0x3 SHL AND SHR NOT AND SWAP1 SSTORE CODESIZE DUP1 DUP1 PUSH2 0xA2F JUMP JUMPDEST DUP2 DUP2 ADD MLOAD DUP4 SSTORE PUSH1 0x20 SWAP5 DUP6 ADD SWAP5 PUSH1 0x1 SWAP1 SWAP4 ADD SWAP3 SWAP1 SWAP2 ADD SWAP1 PUSH2 0xA14 JUMP JUMPDEST SWAP1 SWAP2 POP PUSH1 0x2 DUP6 ADD PUSH1 0x0 MSTORE PUSH1 0x20 PUSH1 0x0 KECCAK256 PUSH1 0x1F DUP5 ADD PUSH1 0x5 SHR DUP2 ADD PUSH1 0x20 DUP6 LT PUSH2 0xABF JUMPI JUMPDEST SWAP1 DUP5 SWAP4 SWAP3 SWAP2 JUMPDEST PUSH1 0x1F DUP4 ADD PUSH1 0x5 SHR DUP3 ADD DUP2 LT PUSH2 0xAB0 JUMPI POP POP PUSH2 0x315 JUMP JUMPDEST PUSH1 0x0 DUP2 SSTORE DUP6 SWAP5 POP PUSH1 0x1 ADD PUSH2 0xA9A JUMP JUMPDEST POP DUP1 PUSH2 0xA94 JUMP JUMPDEST ADD MLOAD SWAP1 POP CODESIZE DUP1 PUSH2 0x2CF JUMP JUMPDEST SWAP3 POP PUSH1 0x1 DUP6 ADD PUSH1 0x0 MSTORE PUSH1 0x20 PUSH1 0x0 KECCAK256 SWAP1 PUSH1 0x0 SWAP4 JUMPDEST PUSH1 0x1F NOT DUP5 AND DUP6 LT PUSH2 0xB28 JUMPI PUSH1 0x1 SWAP5 POP DUP4 PUSH1 0x1F NOT DUP2 AND LT PUSH2 0xB0F JUMPI JUMPDEST POP POP POP DUP2 SHL ADD PUSH1 0x1 DUP4 ADD SSTORE PUSH2 0x2E7 JUMP JUMPDEST ADD MLOAD PUSH1 0x0 NOT PUSH1 0xF8 DUP5 PUSH1 0x3 SHL AND SHR NOT AND SWAP1 SSTORE CODESIZE DUP1 DUP1 PUSH2 0xAFF JUMP JUMPDEST DUP2 DUP2 ADD MLOAD DUP4 SSTORE PUSH1 0x20 SWAP5 DUP6 ADD SWAP5 PUSH1 0x1 SWAP1 SWAP4 ADD SWAP3 SWAP1 SWAP2 ADD SWAP1 PUSH2 0xAE4 JUMP JUMPDEST SWAP1 SWAP2 POP PUSH1 0x1 DUP6 ADD PUSH1 0x0 MSTORE PUSH1 0x20 PUSH1 0x0 KECCAK256 PUSH1 0x1F DUP5 ADD PUSH1 0x5 SHR DUP2 ADD PUSH1 0x20 DUP6 LT PUSH2 0xB8F JUMPI JUMPDEST SWAP1 DUP5 SWAP4 SWAP3 SWAP2 JUMPDEST PUSH1 0x1F DUP4 ADD PUSH1 0x5 SHR DUP3 ADD DUP2 LT PUSH2 0xB80 JUMPI POP POP PUSH2 0x2B8 JUMP JUMPDEST PUSH1 0x0 DUP2 SSTORE DUP6 SWAP5 POP PUSH1 0x1 ADD PUSH2 0xB6A JUMP JUMPDEST POP DUP1 PUSH2 0xB64 JUMP JUMPDEST ADD MLOAD SWAP1 POP CODESIZE DUP1 PUSH2 0x275 JUMP JUMPDEST SWAP3 POP DUP5 PUSH1 0x0 MSTORE PUSH1 0x20 PUSH1 0x0 KECCAK256 SWAP1 PUSH1 0x0 SWAP4 JUMPDEST PUSH1 0x1F NOT DUP5 AND DUP6 LT PUSH2 0xBF2 JUMPI PUSH1 0x1 SWAP5 POP DUP4 PUSH1 0x1F NOT DUP2 AND LT PUSH2 0xBD9 JUMPI JUMPDEST POP POP POP DUP2 SHL ADD DUP3 SSTORE PUSH2 0x28A JUMP JUMPDEST ADD MLOAD PUSH1 0x0 NOT PUSH1 0xF8 DUP5 PUSH1 0x3 SHL AND SHR NOT AND SWAP1 SSTORE CODESIZE DUP1 DUP1 PUSH2 0xBCC JUMP JUMPDEST DUP2 DUP2 ADD MLOAD DUP4 SSTORE PUSH1 0x20 SWAP5 DUP6 ADD SWAP5 PUSH1 0x1 SWAP1 SWAP4 ADD SWAP3 SWAP1 SWAP2 ADD SWAP1 PUSH2 0xBB1 JUMP JUMPDEST SWAP1 SWAP2 POP DUP5 PUSH1 0x0 MSTORE PUSH1 0x20 PUSH1 0x0 KECCAK256 PUSH1 0x1F DUP5 ADD PUSH1 0x5 SHR DUP2 ADD PUSH1 0x20 DUP6 LT PUSH2 0xC56 JUMPI JUMPDEST SWAP1 DUP5 SWAP4 SWAP3 SWAP2 JUMPDEST PUSH1 0x1F DUP4 ADD PUSH1 0x5 SHR DUP3 ADD DUP2 LT PUSH2 0xC47 JUMPI POP POP PUSH2 0x25E JUMP JUMPDEST PUSH1 0x0 DUP2 SSTORE DUP6 SWAP5 POP PUSH1 0x1 ADD PUSH2 0xC31 JUMP JUMPDEST POP DUP1 PUSH2 0xC2B JUMP JUMPDEST SWAP1 PUSH3 0x757265 PUSH1 0xE8 SHL PUSH1 0x84 SWAP3 PUSH32 0x4C4F503A20446561646C696E65206D75737420626520696E2074686520667574 PUSH1 0x40 MLOAD SWAP4 PUSH3 0x461BCD PUSH1 0xE5 SHL DUP6 MSTORE PUSH1 0x20 PUSH1 0x4 DUP7 ADD MSTORE PUSH1 0x23 PUSH1 0x24 DUP7 ADD MSTORE DUP5 ADD MSTORE DUP3 ADD MSTORE REVERT JUMPDEST SWAP1 PUSH7 0x207468616E203 PUSH1 0xCC SHL PUSH1 0x84 SWAP3 PUSH32 0x4C4F503A204465737420616D6F756E74206D7573742062652067726561746572 PUSH1 0x40 MLOAD SWAP4 PUSH3 0x461BCD PUSH1 0xE5 SHL DUP6 MSTORE PUSH1 0x20 PUSH1 0x4 DUP7 ADD MSTORE PUSH1 0x27 PUSH1 0x24 DUP7 ADD MSTORE DUP5 ADD MSTORE DUP3 ADD MSTORE REVERT JUMPDEST SWAP1 PUSH9 0x6572207468616E203 PUSH1 0xBC SHL PUSH1 0x84 SWAP3 PUSH32 0x4C4F503A20536F7572636520616D6F756E74206D757374206265206772656174 PUSH1 0x40 MLOAD SWAP4 PUSH3 0x461BCD PUSH1 0xE5 SHL DUP6 MSTORE PUSH1 0x20 PUSH1 0x4 DUP7 ADD MSTORE PUSH1 0x29 PUSH1 0x24 DUP7 ADD MSTORE DUP5 ADD MSTORE DUP3 ADD MSTORE REVERT JUMPDEST SWAP1 PUSH8 0x626520656D707479 PUSH1 0xC0 SHL PUSH1 0x84 SWAP3 PUSH32 0x4C4F503A20446573742077616C6C657420616464726573732063616E6E6F7420 PUSH1 0x40 MLOAD SWAP4 PUSH3 0x461BCD PUSH1 0xE5 SHL DUP6 MSTORE PUSH1 0x20 PUSH1 0x4 DUP7 ADD MSTORE PUSH1 0x28 PUSH1 0x24 DUP7 ADD MSTORE DUP5 ADD MSTORE DUP3 ADD MSTORE REVERT JUMPDEST SWAP1 PUSH10 0x7420626520656D707479 PUSH1 0xB0 SHL PUSH1 0x84 SWAP3 PUSH32 0x4C4F503A20536F757263652077616C6C657420616464726573732063616E6E6F PUSH1 0x40 MLOAD SWAP4 PUSH3 0x461BCD PUSH1 0xE5 SHL DUP6 MSTORE PUSH1 0x20 PUSH1 0x4 DUP7 ADD MSTORE PUSH1 0x2A PUSH1 0x24 DUP7 ADD MSTORE DUP5 ADD MSTORE DUP3 ADD MSTORE REVERT JUMPDEST SWAP1 PUSH2 0x7479 PUSH1 0xF0 SHL PUSH1 0x84 SWAP3 PUSH32 0x4C4F503A204465737420636861696E2049442063616E6E6F7420626520656D70 PUSH1 0x40 MLOAD SWAP4 PUSH3 0x461BCD PUSH1 0xE5 SHL DUP6 MSTORE PUSH1 0x20 PUSH1 0x4 DUP7 ADD MSTORE PUSH1 0x22 PUSH1 0x24 DUP7 ADD MSTORE DUP5 ADD MSTORE DUP3 ADD MSTORE REVERT JUMPDEST SWAP1 PUSH4 0x6D707479 PUSH1 0xE0 SHL PUSH1 0x84 SWAP3 PUSH32 0x4C4F503A20536F7572636520636861696E2049442063616E6E6F742062652065 PUSH1 0x40 MLOAD SWAP4 PUSH3 0x461BCD PUSH1 0xE5 SHL DUP6 MSTORE PUSH1 0x20 PUSH1 0x4 DUP7 ADD MSTORE PUSH1 0x24 DUP1 DUP7 ADD MSTORE DUP5 ADD MSTORE DUP3 ADD MSTORE REVERT JUMPDEST PUSH1 0x0 DUP1 REVERT JUMPDEST CALLVALUE PUSH2 0xE9B JUMPI PUSH1 0x20 CALLDATASIZE PUSH1 0x3 NOT ADD SLT PUSH2 0xE9B JUMPI PUSH1 0x0 PUSH2 0x1C0 PUSH1 0x40 MLOAD PUSH2 0xEC2 DUP2 PUSH2 0x1B49 JUMP JUMPDEST PUSH1 0x60 DUP2 MSTORE PUSH1 0x60 PUSH1 0x20 DUP3 ADD MSTORE PUSH1 0x60 PUSH1 0x40 DUP3 ADD MSTORE PUSH1 0x60 DUP1 DUP3 ADD MSTORE PUSH1 0x60 PUSH1 0x80 DUP3 ADD MSTORE PUSH1 0x60 PUSH1 0xA0 DUP3 ADD MSTORE DUP3 PUSH1 0xC0 DUP3 ADD MSTORE DUP3 PUSH1 0xE0 DUP3 ADD MSTORE DUP3 PUSH2 0x100 DUP3 ADD MSTORE DUP3 PUSH2 0x120 DUP3 ADD MSTORE DUP3 PUSH2 0x140 DUP3 ADD MSTORE DUP3 PUSH2 0x160 DUP3 ADD MSTORE DUP3 PUSH2 0x180 DUP3 ADD MSTORE DUP3 PUSH2 0x1A0 DUP3 ADD MSTORE ADD MSTORE PUSH1 0x4 CALLDATALOAD PUSH1 0x0 MSTORE PUSH1 0x1 PUSH1 0x20 MSTORE PUSH1 0x40 PUSH1 0x0 KECCAK256 PUSH1 0xC PUSH1 0x40 MLOAD SWAP2 PUSH2 0xF3F DUP4 PUSH2 0x1B49 JUMP JUMPDEST PUSH2 0xF48 DUP2 PUSH2 0x1B86 JUMP JUMPDEST DUP4 MSTORE PUSH2 0xF56 PUSH1 0x1 DUP3 ADD PUSH2 0x1B86 JUMP JUMPDEST PUSH1 0x20 DUP5 ADD MSTORE PUSH2 0xF67 PUSH1 0x2 DUP3 ADD PUSH2 0x1B86 JUMP JUMPDEST PUSH1 0x40 DUP5 ADD MSTORE PUSH2 0xF78 PUSH1 0x3 DUP3 ADD PUSH2 0x1B86 JUMP JUMPDEST PUSH1 0x60 DUP5 ADD MSTORE PUSH2 0xF89 PUSH1 0x4 DUP3 ADD PUSH2 0x1B86 JUMP JUMPDEST PUSH1 0x80 DUP5 ADD MSTORE PUSH2 0xF9A PUSH1 0x5 DUP3 ADD PUSH2 0x1B86 JUMP JUMPDEST PUSH1 0xA0 DUP5 ADD MSTORE PUSH1 0x6 DUP2 ADD SLOAD PUSH1 0xC0 DUP5 ADD MSTORE PUSH1 0x7 DUP2 ADD SLOAD PUSH1 0xE0 DUP5 ADD MSTORE PUSH1 0x8 DUP2 ADD SLOAD PUSH2 0x100 DUP5 ADD MSTORE PUSH1 0xFF PUSH1 0x9 DUP3 ADD SLOAD PUSH1 0x1 DUP1 PUSH1 0xA0 SHL SUB DUP2 AND PUSH2 0x120 DUP7 ADD MSTORE DUP2 DUP2 PUSH1 0xA0 SHR AND ISZERO ISZERO PUSH2 0x140 DUP7 ADD MSTORE PUSH1 0xA8 SHR AND ISZERO ISZERO PUSH2 0x160 DUP5 ADD MSTORE PUSH1 0x1 DUP1 PUSH1 0xA0 SHL SUB PUSH1 0xA DUP3 ADD SLOAD AND PUSH2 0x180 DUP5 ADD MSTORE PUSH1 0xB DUP2 ADD SLOAD PUSH2 0x1A0 DUP5 ADD MSTORE ADD SLOAD PUSH2 0x1C0 DUP3 ADD MSTORE PUSH1 0x40 MLOAD DUP1 SWAP2 PUSH1 0x20 DUP3 MSTORE PUSH2 0x1C0 PUSH2 0x10B1 PUSH2 0x103B DUP4 MLOAD PUSH2 0x1E0 PUSH1 0x20 DUP8 ADD MSTORE PUSH2 0x200 DUP7 ADD SWAP1 PUSH2 0x1C4F JUMP JUMPDEST PUSH2 0x109C PUSH2 0x1088 PUSH2 0x1074 PUSH2 0x1060 PUSH1 0x20 DUP9 ADD MLOAD SWAP5 PUSH1 0x1F NOT SWAP6 DUP7 DUP12 DUP4 SUB ADD PUSH1 0x40 DUP13 ADD MSTORE PUSH2 0x1C4F JUMP JUMPDEST PUSH1 0x40 DUP9 ADD MLOAD DUP6 DUP11 DUP4 SUB ADD PUSH1 0x60 DUP12 ADD MSTORE PUSH2 0x1C4F JUMP JUMPDEST PUSH1 0x60 DUP8 ADD MLOAD DUP5 DUP10 DUP4 SUB ADD PUSH1 0x80 DUP11 ADD MSTORE PUSH2 0x1C4F JUMP JUMPDEST PUSH1 0x80 DUP7 ADD MLOAD DUP4 DUP9 DUP4 SUB ADD PUSH1 0xA0 DUP10 ADD MSTORE PUSH2 0x1C4F JUMP JUMPDEST SWAP1 PUSH1 0xA0 DUP6 ADD MLOAD SWAP1 DUP7 DUP4 SUB ADD PUSH1 0xC0 DUP8 ADD MSTORE PUSH2 0x1C4F JUMP JUMPDEST SWAP2 PUSH1 0xC0 DUP2 ADD MLOAD PUSH1 0xE0 DUP6 ADD MSTORE PUSH1 0xE0 DUP2 ADD MLOAD PUSH2 0x100 DUP6 ADD MSTORE PUSH2 0x100 DUP2 ADD MLOAD PUSH2 0x120 DUP6 ADD MSTORE PUSH1 0x1 DUP1 PUSH1 0xA0 SHL SUB PUSH2 0x120 DUP3 ADD MLOAD AND PUSH2 0x140 DUP6 ADD MSTORE PUSH2 0x140 DUP2 ADD MLOAD ISZERO ISZERO PUSH2 0x160 DUP6 ADD MSTORE PUSH2 0x160 DUP2 ADD MLOAD ISZERO ISZERO PUSH2 0x180 DUP6 ADD MSTORE PUSH1 0x1 DUP1 PUSH1 0xA0 SHL SUB PUSH2 0x180 DUP3 ADD MLOAD AND PUSH2 0x1A0 DUP6 ADD MSTORE PUSH2 0x1A0 DUP2 ADD MLOAD DUP3 DUP6 ADD MSTORE ADD MLOAD PUSH2 0x1E0 DUP4 ADD MSTORE SUB SWAP1 RETURN JUMPDEST CALLVALUE PUSH2 0xE9B JUMPI PUSH1 0x20 DUP1 PUSH1 0x3 NOT CALLDATASIZE ADD SLT PUSH2 0xE9B JUMPI PUSH1 0x1 PUSH1 0x1 PUSH1 0xA0 SHL SUB SWAP1 PUSH1 0x4 CALLDATALOAD DUP3 DUP2 AND SWAP1 DUP2 SWAP1 SUB PUSH2 0xE9B JUMPI PUSH1 0x0 SLOAD SWAP1 PUSH2 0x1163 DUP3 PUSH2 0x1D5E JUMP JUMPDEST SWAP4 PUSH1 0x0 SWAP4 PUSH1 0x0 JUMPDEST DUP5 DUP2 LT PUSH2 0x11BD JUMPI DUP7 DUP7 PUSH2 0x117C DUP2 PUSH2 0x1D5E JUMP JUMPDEST SWAP2 PUSH1 0x0 JUMPDEST DUP3 DUP2 LT PUSH2 0x1199 JUMPI PUSH1 0x40 MLOAD DUP1 PUSH2 0x1195 DUP7 DUP3 PUSH2 0x1AD4 JUMP JUMPDEST SUB SWAP1 RETURN JUMPDEST DUP1 PUSH2 0x11A7 PUSH2 0x11B8 SWAP3 DUP5 PUSH2 0x1D90 JUMP JUMPDEST MLOAD PUSH2 0x11B2 DUP3 DUP8 PUSH2 0x1D90 JUMP JUMPDEST MSTORE PUSH2 0x1CD6 JUMP JUMPDEST PUSH2 0x1180 JUMP JUMPDEST DUP1 PUSH1 0x0 MSTORE PUSH1 0x1 DUP3 MSTORE DUP4 DUP4 PUSH1 0xA PUSH1 0x40 PUSH1 0x0 KECCAK256 ADD SLOAD AND EQ PUSH2 0x11E5 JUMPI JUMPDEST PUSH2 0x11E0 SWAP1 PUSH2 0x1CD6 JUMP JUMPDEST PUSH2 0x116A JUMP JUMPDEST SWAP5 PUSH2 0x11F8 DUP2 DUP8 PUSH2 0x11B2 PUSH2 0x11E0 SWAP5 DUP12 PUSH2 0x1D90 JUMP JUMPDEST SWAP6 SWAP1 POP PUSH2 0x11D7 JUMP JUMPDEST CALLVALUE PUSH2 0xE9B JUMPI PUSH1 0x20 CALLDATASIZE PUSH1 0x3 NOT ADD SLT PUSH2 0xE9B JUMPI PUSH1 0x4 CALLDATALOAD PUSH1 0x0 MSTORE PUSH1 0x1 PUSH1 0x20 MSTORE PUSH1 0x20 PUSH1 0x40 PUSH1 0x0 KECCAK256 PUSH1 0x40 MLOAD SWAP1 PUSH2 0x1230 DUP3 PUSH2 0x1B49 JUMP JUMPDEST PUSH2 0x1239 DUP2 PUSH2 0x1B86 JUMP JUMPDEST DUP3 MSTORE PUSH2 0x1247 PUSH1 0x1 DUP3 ADD PUSH2 0x1B86 JUMP JUMPDEST DUP4 DUP4 ADD MSTORE PUSH2 0x1257 PUSH1 0x2 DUP3 ADD PUSH2 0x1B86 JUMP JUMPDEST PUSH1 0x40 DUP4 ADD MSTORE PUSH2 0x1268 PUSH1 0x3 DUP3 ADD PUSH2 0x1B86 JUMP JUMPDEST PUSH1 0x60 DUP4 ADD MSTORE PUSH2 0x1279 PUSH1 0x4 DUP3 ADD PUSH2 0x1B86 JUMP JUMPDEST PUSH1 0x80 DUP4 ADD MSTORE PUSH2 0x128A PUSH1 0x5 DUP3 ADD PUSH2 0x1B86 JUMP JUMPDEST PUSH1 0xA0 DUP4 ADD MSTORE PUSH1 0x6 DUP2 ADD SLOAD PUSH1 0xC0 DUP4 ADD MSTORE PUSH1 0x7 DUP2 ADD SLOAD PUSH1 0xE0 DUP4 ADD MSTORE PUSH1 0x8 DUP2 ADD SLOAD SWAP1 DUP2 PUSH2 0x100 DUP5 ADD MSTORE PUSH1 0x9 DUP2 ADD SLOAD SWAP3 PUSH2 0x1C0 PUSH1 0xC PUSH1 0x1 DUP1 PUSH1 0xA0 SHL SUB SWAP4 DUP5 DUP8 AND PUSH2 0x120 DUP6 ADD MSTORE PUSH1 0xFF DUP1 DUP9 PUSH1 0xA0 SHR AND ISZERO ISZERO SWAP8 DUP9 PUSH2 0x140 DUP8 ADD MSTORE PUSH1 0xA8 SHR AND ISZERO SWAP5 DUP6 ISZERO PUSH2 0x160 DUP7 ADD MSTORE PUSH1 0xA DUP3 ADD SLOAD AND PUSH2 0x180 DUP6 ADD MSTORE PUSH1 0xB DUP2 ADD SLOAD PUSH2 0x1A0 DUP6 ADD MSTORE ADD SLOAD SWAP2 ADD MSTORE DUP3 PUSH2 0x132B JUMPI JUMPDEST POP DUP2 PUSH2 0x1320 JUMPI JUMPDEST POP PUSH1 0x40 MLOAD SWAP1 ISZERO ISZERO DUP2 MSTORE RETURN JUMPDEST SWAP1 POP TIMESTAMP GT ISZERO DUP3 PUSH2 0x1315 JUMP JUMPDEST SWAP2 POP DUP4 PUSH2 0x130E JUMP JUMPDEST CALLVALUE PUSH2 0xE9B JUMPI PUSH1 0x20 CALLDATASIZE PUSH1 0x3 NOT ADD SLT PUSH2 0xE9B JUMPI PUSH1 0x4 CALLDATALOAD PUSH1 0x0 MSTORE PUSH1 0x1 PUSH1 0x20 MSTORE PUSH1 0x40 PUSH1 0x0 KECCAK256 PUSH2 0x135D DUP2 PUSH2 0x1B86 JUMP JUMPDEST PUSH2 0x1369 PUSH1 0x1 DUP4 ADD PUSH2 0x1B86 JUMP JUMPDEST SWAP2 PUSH2 0x1376 PUSH1 0x2 DUP3 ADD PUSH2 0x1B86 JUMP JUMPDEST PUSH2 0x1382 PUSH1 0x3 DUP4 ADD PUSH2 0x1B86 JUMP JUMPDEST SWAP2 PUSH2 0x138F PUSH1 0x4 DUP3 ADD PUSH2 0x1B86 JUMP JUMPDEST SWAP3 PUSH2 0x139C PUSH1 0x5 DUP4 ADD PUSH2 0x1B86 JUMP JUMPDEST PUSH1 0x6 DUP4 ADD SLOAD SWAP5 PUSH1 0x7 DUP5 ADD SLOAD PUSH1 0x8 DUP6 ADD SLOAD SWAP1 PUSH1 0x9 DUP7 ADD SLOAD SWAP4 PUSH1 0x1 PUSH1 0xA0 SHL PUSH1 0x1 SWAP1 SUB SWAP4 DUP5 PUSH1 0xA DUP10 ADD SLOAD AND SWAP7 PUSH1 0xB DUP10 ADD SLOAD SWAP9 PUSH1 0xC ADD SLOAD SWAP10 PUSH1 0x40 MLOAD SWAP14 DUP15 DUP1 SWAP15 PUSH2 0x1E0 DUP1 DUP4 MSTORE DUP3 ADD PUSH2 0x13E8 SWAP2 PUSH2 0x1C4F JUMP JUMPDEST SWAP1 DUP1 DUP3 SUB SWAP1 PUSH1 0x20 ADD MSTORE PUSH2 0x13FA SWAP2 PUSH2 0x1C4F JUMP JUMPDEST DUP14 DUP2 SUB PUSH1 0x40 DUP16 ADD MSTORE PUSH2 0x140B SWAP2 PUSH2 0x1C4F JUMP JUMPDEST DUP13 DUP2 SUB PUSH1 0x60 DUP15 ADD MSTORE PUSH2 0x141C SWAP2 PUSH2 0x1C4F JUMP JUMPDEST DUP12 DUP2 SUB PUSH1 0x80 DUP14 ADD MSTORE PUSH2 0x142D SWAP2 PUSH2 0x1C4F JUMP JUMPDEST DUP11 DUP2 SUB PUSH1 0xA0 DUP13 ADD MSTORE PUSH2 0x143E SWAP2 PUSH2 0x1C4F JUMP JUMPDEST SWAP8 PUSH1 0xC0 DUP11 ADD MSTORE PUSH1 0xE0 DUP10 ADD MSTORE PUSH2 0x100 DUP9 ADD MSTORE DUP2 AND PUSH2 0x120 DUP8 ADD MSTORE DUP1 PUSH1 0xA0 SHR PUSH1 0xFF AND ISZERO ISZERO PUSH2 0x140 DUP8 ADD MSTORE PUSH1 0xA8 SHR PUSH1 0xFF AND ISZERO ISZERO PUSH2 0x160 DUP7 ADD MSTORE PUSH2 0x180 DUP6 ADD MSTORE PUSH2 0x1A0 DUP5 ADD MSTORE PUSH2 0x1C0 DUP4 ADD MSTORE SUB SWAP1 RETURN JUMPDEST CALLVALUE PUSH2 0xE9B JUMPI PUSH1 0x60 CALLDATASIZE PUSH1 0x3 NOT ADD SLT PUSH2 0xE9B JUMPI PUSH1 0x4 CALLDATALOAD PUSH1 0x24 SWAP1 DUP2 CALLDATALOAD SWAP2 PUSH1 0x44 DUP1 CALLDATALOAD SWAP2 DUP4 PUSH1 0x0 MSTORE PUSH1 0x20 SWAP2 PUSH1 0x1 DUP4 MSTORE PUSH1 0x1 DUP1 PUSH1 0xA0 SHL SUB PUSH1 0x9 PUSH1 0x40 PUSH1 0x0 KECCAK256 ADD SLOAD AND ISZERO PUSH2 0x16A8 JUMPI DUP5 PUSH1 0x0 MSTORE PUSH1 0x1 DUP4 MSTORE PUSH2 0x14E9 PUSH1 0xFF PUSH1 0x9 PUSH1 0x40 PUSH1 0x0 KECCAK256 ADD SLOAD PUSH1 0xA0 SHR AND PUSH2 0x1CFB JUMP JUMPDEST DUP5 PUSH1 0x0 MSTORE PUSH1 0x1 DUP4 MSTORE PUSH1 0x8 PUSH1 0x40 PUSH1 0x0 KECCAK256 ADD SLOAD TIMESTAMP GT PUSH2 0x166D JUMPI DUP5 PUSH1 0x0 MSTORE PUSH1 0x1 DUP4 MSTORE PUSH1 0x40 PUSH1 0x0 KECCAK256 SWAP2 PUSH1 0x9 DUP4 ADD SWAP2 DUP3 SLOAD SWAP2 PUSH1 0xFF DUP4 PUSH1 0xA8 SHR AND PUSH2 0x162B JUMPI DUP9 ISZERO PUSH2 0x15E9 JUMPI TIMESTAMP DUP8 GT ISZERO PUSH2 0x159B JUMPI POP POP SWAP2 PUSH1 0xC SWAP2 DUP6 SWAP4 PUSH1 0x1 PUSH1 0xA8 SHL SWAP1 PUSH1 0xFF PUSH1 0xA8 SHL NOT AND OR SWAP1 SSTORE PUSH1 0xA DUP2 ADD CALLER PUSH12 0xFFFFFFFFFFFFFFFFFFFFFFFF PUSH1 0xA0 SHL DUP3 SLOAD AND OR SWAP1 SSTORE DUP7 PUSH1 0xB DUP3 ADD SSTORE ADD SSTORE PUSH1 0x40 MLOAD SWAP4 DUP5 MSTORE DUP4 ADD MSTORE PUSH32 0x90EFB7A1C1EAB91F56697D1041B20B073759777C18C0DA45C84920971E072B94 PUSH1 0x40 CALLER SWAP4 LOG3 STOP JUMPDEST PUSH32 0x4C4F503A2054696D656C6F636B206D75737420626520696E2074686520667574 PUSH1 0x84 SWAP3 PUSH1 0x23 DUP9 SWAP4 PUSH1 0x40 MLOAD SWAP5 PUSH3 0x461BCD PUSH1 0xE5 SHL DUP7 MSTORE PUSH1 0x4 DUP7 ADD MSTORE DUP5 ADD MSTORE DUP3 ADD MSTORE PUSH3 0x757265 PUSH1 0xE8 SHL PUSH1 0x64 DUP3 ADD MSTORE REVERT JUMPDEST PUSH32 0x4C4F503A20486173686C6F636B2063616E6E6F74206265207A65726F00000000 PUSH1 0x64 SWAP3 PUSH1 0x1C DUP9 SWAP4 PUSH1 0x40 MLOAD SWAP5 PUSH3 0x461BCD PUSH1 0xE5 SHL DUP7 MSTORE PUSH1 0x4 DUP7 ADD MSTORE DUP5 ADD MSTORE DUP3 ADD MSTORE REVERT JUMPDEST PUSH32 0x4C4F503A204F7264657220616C72656164792061636365707465640000000000 PUSH1 0x64 SWAP3 PUSH1 0x1B DUP9 SWAP4 PUSH1 0x40 MLOAD SWAP5 PUSH3 0x461BCD PUSH1 0xE5 SHL DUP7 MSTORE PUSH1 0x4 DUP7 ADD MSTORE DUP5 ADD MSTORE DUP3 ADD MSTORE REVERT JUMPDEST PUSH1 0x64 SWAP4 POP PUSH1 0x16 PUSH22 0x1313D40E8813DC99195C881A185CC8195E1C1A5C9959 PUSH1 0x52 SHL SWAP3 PUSH1 0x40 MLOAD SWAP5 PUSH3 0x461BCD PUSH1 0xE5 SHL DUP7 MSTORE PUSH1 0x4 DUP7 ADD MSTORE DUP5 ADD MSTORE DUP3 ADD MSTORE REVERT JUMPDEST PUSH1 0x64 SWAP4 POP PUSH1 0x19 PUSH32 0x4C4F503A204F7264657220646F6573206E6F7420657869737400000000000000 SWAP3 PUSH1 0x40 MLOAD SWAP5 PUSH3 0x461BCD PUSH1 0xE5 SHL DUP7 MSTORE PUSH1 0x4 DUP7 ADD MSTORE DUP5 ADD MSTORE DUP3 ADD MSTORE REVERT JUMPDEST CALLVALUE PUSH2 0xE9B JUMPI PUSH1 0x20 DUP1 PUSH1 0x3 NOT CALLDATASIZE ADD SLT PUSH2 0xE9B JUMPI PUSH1 0x4 CALLDATALOAD PUSH1 0x0 DUP2 DUP2 MSTORE PUSH1 0x1 DUP4 MSTORE PUSH1 0x40 SWAP1 KECCAK256 PUSH1 0x9 ADD SLOAD SWAP1 SWAP2 SWAP1 PUSH1 0x1 PUSH1 0x1 PUSH1 0xA0 SHL SUB AND CALLER SUB PUSH2 0x17E1 JUMPI DUP2 PUSH1 0x0 MSTORE PUSH1 0x1 DUP2 MSTORE PUSH2 0x1741 PUSH1 0xFF PUSH1 0x9 PUSH1 0x40 PUSH1 0x0 KECCAK256 ADD SLOAD PUSH1 0xA0 SHR AND PUSH2 0x1CFB JUMP JUMPDEST DUP2 PUSH1 0x0 MSTORE PUSH1 0x1 DUP2 MSTORE PUSH1 0x9 PUSH1 0x40 PUSH1 0x0 KECCAK256 ADD SWAP1 DUP2 SLOAD SWAP1 PUSH1 0xFF DUP3 PUSH1 0xA8 SHR AND PUSH2 0x1793 JUMPI POP PUSH1 0xFF PUSH1 0xA0 SHL NOT AND SWAP1 SSTORE CALLER SWAP1 PUSH32 0xC0362DA6F2FF36B382B34AEC0814F6B3CDF89F5EF282A1D1F114D0C0B036D596 PUSH1 0x0 DUP1 LOG3 STOP JUMPDEST PUSH1 0x84 SWAP1 PUSH1 0x40 MLOAD SWAP1 PUSH3 0x461BCD PUSH1 0xE5 SHL DUP3 MSTORE PUSH1 0x4 DUP3 ADD MSTORE PUSH1 0x21 PUSH1 0x24 DUP3 ADD MSTORE PUSH32 0x4C4F503A2043616E6E6F742063616E63656C206163636570746564206F726465 PUSH1 0x44 DUP3 ADD MSTORE PUSH1 0x39 PUSH1 0xF9 SHL PUSH1 0x64 DUP3 ADD MSTORE REVERT JUMPDEST PUSH1 0x84 SWAP1 PUSH1 0x40 MLOAD SWAP1 PUSH3 0x461BCD PUSH1 0xE5 SHL DUP3 MSTORE PUSH1 0x4 DUP3 ADD MSTORE PUSH1 0x25 PUSH1 0x24 DUP3 ADD MSTORE PUSH32 0x4C4F503A204F6E6C79206F726465722063726561746F722063616E2063616C6C PUSH1 0x44 DUP3 ADD MSTORE PUSH5 0x2074686973 PUSH1 0xD8 SHL PUSH1 0x64 DUP3 ADD MSTORE REVERT JUMPDEST CALLVALUE PUSH2 0xE9B JUMPI PUSH1 0x0 CALLDATASIZE PUSH1 0x3 NOT ADD SLT PUSH2 0xE9B JUMPI PUSH1 0x20 PUSH1 0x0 SLOAD PUSH1 0x40 MLOAD SWAP1 DUP2 MSTORE RETURN JUMPDEST CALLVALUE PUSH2 0xE9B JUMPI PUSH1 0x20 DUP1 PUSH1 0x3 NOT CALLDATASIZE ADD SLT PUSH2 0xE9B JUMPI PUSH1 0x1 PUSH1 0x1 PUSH1 0xA0 SHL SUB SWAP1 PUSH1 0x4 CALLDATALOAD DUP3 DUP2 AND SWAP1 DUP2 SWAP1 SUB PUSH2 0xE9B JUMPI PUSH1 0x0 SLOAD SWAP1 PUSH2 0x1887 DUP3 PUSH2 0x1D5E JUMP JUMPDEST SWAP4 PUSH1 0x0 SWAP4 PUSH1 0x0 JUMPDEST DUP5 DUP2 LT PUSH2 0x18CC JUMPI DUP7 DUP7 PUSH2 0x18A0 DUP2 PUSH2 0x1D5E JUMP JUMPDEST SWAP2 PUSH1 0x0 JUMPDEST DUP3 DUP2 LT PUSH2 0x18B9 JUMPI PUSH1 0x40 MLOAD DUP1 PUSH2 0x1195 DUP7 DUP3 PUSH2 0x1AD4 JUMP JUMPDEST DUP1 PUSH2 0x11A7 PUSH2 0x18C7 SWAP3 DUP5 PUSH2 0x1D90 JUMP JUMPDEST PUSH2 0x18A4 JUMP JUMPDEST DUP1 PUSH1 0x0 MSTORE PUSH1 0x1 DUP3 MSTORE DUP4 DUP4 PUSH1 0x9 PUSH1 0x40 PUSH1 0x0 KECCAK256 ADD SLOAD AND EQ PUSH2 0x18F4 JUMPI JUMPDEST PUSH2 0x18EF SWAP1 PUSH2 0x1CD6 JUMP JUMPDEST PUSH2 0x188E JUMP JUMPDEST SWAP5 PUSH2 0x1907 DUP2 DUP8 PUSH2 0x11B2 PUSH2 0x18EF SWAP5 DUP12 PUSH2 0x1D90 JUMP JUMPDEST SWAP6 SWAP1 POP PUSH2 0x18E6 JUMP JUMPDEST CALLVALUE PUSH2 0xE9B JUMPI PUSH1 0x20 CALLDATASIZE PUSH1 0x3 NOT ADD SLT PUSH2 0xE9B JUMPI PUSH1 0x4 CALLDATALOAD PUSH1 0x0 MSTORE PUSH1 0x1 PUSH1 0x20 MSTORE PUSH1 0x20 PUSH1 0x40 PUSH1 0x0 KECCAK256 PUSH1 0x40 MLOAD PUSH2 0x193E DUP2 PUSH2 0x1B49 JUMP JUMPDEST PUSH2 0x1947 DUP3 PUSH2 0x1B86 JUMP JUMPDEST DUP2 MSTORE PUSH2 0x1955 PUSH1 0x1 DUP4 ADD PUSH2 0x1B86 JUMP JUMPDEST DUP4 DUP3 ADD MSTORE PUSH2 0x1965 PUSH1 0x2 DUP4 ADD PUSH2 0x1B86 JUMP JUMPDEST PUSH1 0x40 DUP3 ADD MSTORE PUSH2 0x1976 PUSH1 0x3 DUP4 ADD PUSH2 0x1B86 JUMP JUMPDEST PUSH1 0x60 DUP3 ADD MSTORE PUSH2 0x1987 PUSH1 0x4 DUP4 ADD PUSH2 0x1B86 JUMP JUMPDEST PUSH1 0x80 DUP3 ADD MSTORE PUSH2 0x1998 PUSH1 0x5 DUP4 ADD PUSH2 0x1B86 JUMP JUMPDEST PUSH1 0xA0 DUP3 ADD MSTORE PUSH1 0x6 DUP3 ADD SLOAD PUSH1 0xC0 DUP3 ADD MSTORE PUSH1 0x7 DUP3 ADD SLOAD PUSH1 0xE0 DUP3 ADD MSTORE PUSH1 0x8 DUP3 ADD SLOAD PUSH2 0x100 DUP3 ADD MSTORE PUSH1 0x9 DUP3 ADD SLOAD SWAP1 PUSH2 0x1C0 PUSH1 0xC PUSH1 0x1 DUP1 PUSH1 0xA0 SHL SUB SWAP5 DUP6 DUP6 AND PUSH2 0x120 DUP6 ADD MSTORE PUSH1 0xFF DUP1 DUP7 PUSH1 0xA0 SHR AND ISZERO ISZERO SWAP6 DUP7 PUSH2 0x140 DUP8 ADD MSTORE PUSH1 0xA8 SHR AND ISZERO ISZERO SWAP6 DUP7 PUSH2 0x160 DUP7 ADD MSTORE PUSH1 0xA DUP3 ADD SLOAD AND PUSH2 0x180 DUP6 ADD MSTORE PUSH1 0xB DUP2 ADD SLOAD PUSH2 0x1A0 DUP6 ADD MSTORE ADD SLOAD SWAP2 ADD MSTORE DUP2 PUSH2 0x1A24 JUMPI POP PUSH1 0x40 MLOAD SWAP1 ISZERO ISZERO DUP2 MSTORE RETURN JUMPDEST SWAP1 POP DUP3 PUSH2 0x1315 JUMP JUMPDEST CALLVALUE PUSH2 0xE9B JUMPI PUSH1 0x0 CALLDATASIZE PUSH1 0x3 NOT ADD SLT PUSH2 0xE9B JUMPI PUSH1 0x0 SLOAD PUSH2 0x1A49 DUP2 PUSH2 0x1D5E JUMP JUMPDEST SWAP1 PUSH1 0x0 SWAP1 PUSH1 0x0 JUMPDEST DUP2 DUP2 LT PUSH2 0x1A8E JUMPI POP POP PUSH2 0x1A62 DUP2 PUSH2 0x1D5E JUMP JUMPDEST SWAP2 PUSH1 0x0 JUMPDEST DUP3 DUP2 LT PUSH2 0x1A7B JUMPI PUSH1 0x40 MLOAD DUP1 PUSH2 0x1195 DUP7 DUP3 PUSH2 0x1AD4 JUMP JUMPDEST DUP1 PUSH2 0x11A7 PUSH2 0x1A89 SWAP3 DUP5 PUSH2 0x1D90 JUMP JUMPDEST PUSH2 0x1A66 JUMP JUMPDEST DUP1 PUSH1 0x0 MSTORE PUSH1 0x1 PUSH1 0x20 MSTORE PUSH1 0xFF PUSH1 0x9 PUSH1 0x40 PUSH1 0x0 KECCAK256 ADD SLOAD PUSH1 0xA0 SHR AND PUSH2 0x1AB9 JUMPI JUMPDEST PUSH2 0x1AB4 SWAP1 PUSH2 0x1CD6 JUMP JUMPDEST PUSH2 0x1A50 JUMP JUMPDEST SWAP2 PUSH2 0x1ACC DUP2 DUP5 PUSH2 0x11B2 PUSH2 0x1AB4 SWAP5 DUP9 PUSH2 0x1D90 JUMP JUMPDEST SWAP3 SWAP1 POP PUSH2 0x1AAB JUMP JUMPDEST PUSH1 0x20 SWAP1 DUP2 PUSH1 0x40 DUP2 DUP4 ADD SWAP3 DUP3 DUP2 MSTORE DUP6 MLOAD DUP1 SWAP5 MSTORE ADD SWAP4 ADD SWAP2 PUSH1 0x0 JUMPDEST DUP3 DUP2 LT PUSH2 0x1AFB JUMPI POP POP POP POP SWAP1 JUMP JUMPDEST DUP4 MLOAD DUP6 MSTORE SWAP4 DUP2 ADD SWAP4 SWAP3 DUP2 ADD SWAP3 PUSH1 0x1 ADD PUSH2 0x1AED JUMP JUMPDEST SWAP1 PUSH1 0x1 DUP3 DUP2 SHR SWAP3 AND DUP1 ISZERO PUSH2 0x1B3F JUMPI JUMPDEST PUSH1 0x20 DUP4 LT EQ PUSH2 0x1B29 JUMPI JUMP JUMPDEST PUSH4 0x4E487B71 PUSH1 0xE0 SHL PUSH1 0x0 MSTORE PUSH1 0x22 PUSH1 0x4 MSTORE PUSH1 0x24 PUSH1 0x0 REVERT JUMPDEST SWAP2 PUSH1 0x7F AND SWAP2 PUSH2 0x1B1E JUMP JUMPDEST PUSH2 0x1E0 DUP2 ADD SWAP1 DUP2 LT PUSH1 0x1 PUSH1 0x1 PUSH1 0x40 SHL SUB DUP3 GT OR PUSH2 0x840 JUMPI PUSH1 0x40 MSTORE JUMP JUMPDEST SWAP1 PUSH1 0x1F DUP1 NOT SWAP2 ADD AND DUP2 ADD SWAP1 DUP2 LT PUSH1 0x1 PUSH1 0x1 PUSH1 0x40 SHL SUB DUP3 GT OR PUSH2 0x840 JUMPI PUSH1 0x40 MSTORE JUMP JUMPDEST SWAP1 PUSH1 0x40 MLOAD SWAP2 DUP3 PUSH1 0x0 DUP3 SLOAD SWAP3 PUSH2 0x1B9A DUP5 PUSH2 0x1B0F JUMP JUMPDEST SWAP1 DUP2 DUP5 MSTORE PUSH1 0x1 SWAP5 DUP6 DUP2 AND SWAP1 DUP2 PUSH1 0x0 EQ PUSH2 0x1C09 JUMPI POP PUSH1 0x1 EQ PUSH2 0x1BC6 JUMPI JUMPDEST POP POP PUSH2 0x1BC4 SWAP3 POP SUB DUP4 PUSH2 0x1B65 JUMP JUMPDEST JUMP JUMPDEST SWAP1 SWAP4 SWAP2 POP PUSH1 0x0 MSTORE PUSH1 0x20 SWAP1 DUP2 PUSH1 0x0 KECCAK256 SWAP4 PUSH1 0x0 SWAP2 JUMPDEST DUP2 DUP4 LT PUSH2 0x1BF1 JUMPI POP POP PUSH2 0x1BC4 SWAP4 POP DUP3 ADD ADD CODESIZE DUP1 PUSH2 0x1BB6 JUMP JUMPDEST DUP6 SLOAD DUP9 DUP5 ADD DUP6 ADD MSTORE SWAP5 DUP6 ADD SWAP5 DUP8 SWAP5 POP SWAP2 DUP4 ADD SWAP2 PUSH2 0x1BD9 JUMP JUMPDEST SWAP2 POP POP PUSH2 0x1BC4 SWAP5 POP PUSH1 0x20 SWAP3 POP PUSH1 0xFF NOT AND DUP3 DUP5 ADD MSTORE ISZERO ISZERO PUSH1 0x5 SHL DUP3 ADD ADD CODESIZE DUP1 PUSH2 0x1BB6 JUMP JUMPDEST PUSH1 0x0 JUMPDEST DUP4 DUP2 LT PUSH2 0x1C3F JUMPI POP POP PUSH1 0x0 SWAP2 ADD MSTORE JUMP JUMPDEST DUP2 DUP2 ADD MLOAD DUP4 DUP3 ADD MSTORE PUSH1 0x20 ADD PUSH2 0x1C2F JUMP JUMPDEST SWAP1 PUSH1 0x20 SWAP2 PUSH2 0x1C68 DUP2 MLOAD DUP1 SWAP3 DUP2 DUP6 MSTORE DUP6 DUP1 DUP7 ADD SWAP2 ADD PUSH2 0x1C2C JUMP JUMPDEST PUSH1 0x1F ADD PUSH1 0x1F NOT AND ADD ADD SWAP1 JUMP JUMPDEST PUSH1 0x1 PUSH1 0x1 PUSH1 0x40 SHL SUB DUP2 GT PUSH2 0x840 JUMPI PUSH1 0x1F ADD PUSH1 0x1F NOT AND PUSH1 0x20 ADD SWAP1 JUMP JUMPDEST DUP2 PUSH1 0x1F DUP3 ADD SLT ISZERO PUSH2 0xE9B JUMPI DUP1 CALLDATALOAD SWAP1 PUSH2 0x1CA6 DUP3 PUSH2 0x1C74 JUMP JUMPDEST SWAP3 PUSH2 0x1CB4 PUSH1 0x40 MLOAD SWAP5 DUP6 PUSH2 0x1B65 JUMP JUMPDEST DUP3 DUP5 MSTORE PUSH1 0x20 DUP4 DUP4 ADD ADD GT PUSH2 0xE9B JUMPI DUP2 PUSH1 0x0 SWAP3 PUSH1 0x20 DUP1 SWAP4 ADD DUP4 DUP7 ADD CALLDATACOPY DUP4 ADD ADD MSTORE SWAP1 JUMP JUMPDEST PUSH1 0x0 NOT DUP2 EQ PUSH2 0x1CE5 JUMPI PUSH1 0x1 ADD SWAP1 JUMP JUMPDEST PUSH4 0x4E487B71 PUSH1 0xE0 SHL PUSH1 0x0 MSTORE PUSH1 0x11 PUSH1 0x4 MSTORE PUSH1 0x24 PUSH1 0x0 REVERT JUMPDEST ISZERO PUSH2 0x1D02 JUMPI JUMP JUMPDEST PUSH1 0x40 MLOAD PUSH3 0x461BCD PUSH1 0xE5 SHL DUP2 MSTORE PUSH1 0x20 PUSH1 0x4 DUP3 ADD MSTORE PUSH1 0x18 PUSH1 0x24 DUP3 ADD MSTORE PUSH32 0x4C4F503A204F72646572206973206E6F74206163746976650000000000000000 PUSH1 0x44 DUP3 ADD MSTORE PUSH1 0x64 SWAP1 REVERT JUMPDEST PUSH1 0x1 PUSH1 0x1 PUSH1 0x40 SHL SUB DUP2 GT PUSH2 0x840 JUMPI PUSH1 0x5 SHL PUSH1 0x20 ADD SWAP1 JUMP JUMPDEST SWAP1 PUSH2 0x1D68 DUP3 PUSH2 0x1D47 JUMP JUMPDEST PUSH2 0x1D75 PUSH1 0x40 MLOAD SWAP2 DUP3 PUSH2 0x1B65 JUMP JUMPDEST DUP3 DUP2 MSTORE DUP1 SWAP3 PUSH2 0x1D86 PUSH1 0x1F NOT SWAP2 PUSH2 0x1D47 JUMP JUMPDEST ADD SWAP1 PUSH1 0x20 CALLDATASIZE SWAP2 ADD CALLDATACOPY JUMP JUMPDEST DUP1 MLOAD DUP3 LT ISZERO PUSH2 0x1DA4 JUMPI PUSH1 0x20 SWAP2 PUSH1 0x5 SHL ADD ADD SWAP1 JUMP JUMPDEST PUSH4 0x4E487B71 PUSH1 0xE0 SHL PUSH1 0x0 MSTORE PUSH1 0x32 PUSH1 0x4 MSTORE PUSH1 0x24 PUSH1 0x0 REVERT JUMPDEST DUP1 ISZERO PUSH2 0x1E61 JUMPI PUSH1 0x0 DUP2 DUP1 JUMPDEST PUSH2 0x1E4D JUMPI POP PUSH2 0x1DD3 DUP2 PUSH2 0x1C74 JUMP JUMPDEST SWAP1 PUSH2 0x1DE1 PUSH1 0x40 MLOAD SWAP3 DUP4 PUSH2 0x1B65 JUMP JUMPDEST DUP1 DUP3 MSTORE PUSH1 0x1F NOT PUSH2 0x1DF0 DUP3 PUSH2 0x1C74 JUMP JUMPDEST ADD CALLDATASIZE PUSH1 0x20 DUP5 ADD CALLDATACOPY JUMPDEST DUP1 SWAP3 DUP1 ISZERO PUSH2 0x1E46 JUMPI PUSH1 0x0 NOT DUP3 ADD SWAP2 DUP3 GT PUSH2 0x1CE5 JUMPI DUP2 SWAP4 PUSH1 0xA SWAP3 PUSH1 0x30 SWAP1 DUP5 DUP5 MOD DUP3 ADD DUP1 SWAP3 GT PUSH2 0x1CE5 JUMPI DUP6 MLOAD GT ISZERO PUSH2 0x1DA4 JUMPI PUSH1 0xF8 SHL PUSH1 0x1 PUSH1 0x1 PUSH1 0xF8 SHL SUB NOT AND PUSH1 0x0 BYTE SWAP1 DUP5 ADD PUSH1 0x1F ADD MSTORE8 DIV SWAP2 PUSH2 0x1DF8 JUMP JUMPDEST POP POP SWAP1 POP SWAP1 JUMP JUMPDEST SWAP1 PUSH2 0x1E59 PUSH1 0xA SWAP2 PUSH2 0x1CD6 JUMP JUMPDEST SWAP2 DIV DUP1 PUSH2 0x1DC5 JUMP JUMPDEST POP PUSH1 0x40 MLOAD PUSH1 0x40 DUP2 ADD DUP2 DUP2 LT PUSH1 0x1 PUSH1 0x1 PUSH1 0x40 SHL SUB DUP3 GT OR PUSH2 0x840 JUMPI PUSH1 0x40 MSTORE PUSH1 0x1 DUP2 MSTORE PUSH1 0x3 PUSH1 0xFC SHL PUSH1 0x20 DUP3 ADD MSTORE SWAP1 JUMP INVALID LOG2 PUSH5 0x6970667358 0x22 SLT KECCAK256 BYTE 0x2B SWAP10 0xB4 DIV PUSH16 0xA6C72EDB70BCE9E7CEE16F70B2908D5D PREVRANDAO RETURN DUP5 MOD PUSH5 0xEC19CEEA05 PUSH5 0x736F6C6343 STOP ADDMOD SGT STOP CALLER "},"methodIdentifiers":{"acceptOrder(uint256,bytes32,uint256)":"58594419","cancelOrder(uint256)":"514fcac7","createOrder(string,string,string,string,string,string,uint256,uint256,uint256)":"ff28cb35","getActiveOrders()":"0086e68b","getOrder(uint256)":"d09ef241","getOrdersByAcceptor(address)":"c60729ec","getOrdersByCreator(address)":"268e8616","isReadyForAcceptance(uint256)":"bacb91e1","isReadyForHTCL(uint256)":"0fda1f55","nextOrderId()":"2a58b330","orders(uint256)":"a85c38ef"}}}}}