{"contracts/HTCL.sol":{"HTCL":{"abi":[{"inputs":[{"internalType":"address","name":"_bob","type":"address"},{"internalType":"uint256","name":"_timelock","type":"uint256"},{"internalType":"bytes32","name":"_hashlock","type":"bytes32"}],"stateMutability":"payable","type":"constructor"},{"anonymous":false,"inputs":[{"indexed":true,"internalType":"address","name":"alice","type":"address"},{"indexed":false,"internalType":"uint256","name":"amount","type":"uint256"}],"name":"AliceWithdrawn","type":"event"},{"anonymous":false,"inputs":[{"indexed":true,"internalType":"address","name":"bob","type":"address"},{"indexed":false,"internalType":"uint256","name":"amount","type":"uint256"},{"indexed":false,"internalType":"bytes32","name":"secret","type":"bytes32"}],"name":"BobWithdrawn","type":"event"},{"anonymous":false,"inputs":[{"indexed":true,"internalType":"address","name":"creator","type":"address"},{"indexed":true,"internalType":"address","name":"recipient","type":"address"},{"indexed":false,"internalType":"uint256","name":"amount","type":"uint256"},{"indexed":false,"internalType":"uint256","name":"timelock","type":"uint256"},{"indexed":false,"internalType":"bytes32","name":"hashlock","type":"bytes32"}],"name":"HTCLCreated","type":"event"},{"anonymous":false,"inputs":[{"indexed":true,"internalType":"address","name":"creator","type":"address"},{"indexed":false,"internalType":"uint256","name":"amount","type":"uint256"}],"name":"HTCLExpired","type":"event"},{"inputs":[],"name":"alice","outputs":[{"internalType":"address","name":"","type":"address"}],"stateMutability":"view","type":"function"},{"inputs":[],"name":"aliceWithdraw","outputs":[],"stateMutability":"nonpayable","type":"function"},{"inputs":[],"name":"amount","outputs":[{"internalType":"uint256","name":"","type":"uint256"}],"stateMutability":"view","type":"function"},{"inputs":[],"name":"bob","outputs":[{"internalType":"address","name":"","type":"address"}],"stateMutability":"view","type":"function"},{"inputs":[{"internalType":"bytes32","name":"secret","type":"bytes32"}],"name":"bobWithdraw","outputs":[],"stateMutability":"nonpayable","type":"function"},{"inputs":[],"name":"getBalance","outputs":[{"internalType":"uint256","name":"","type":"uint256"}],"stateMutability":"view","type":"function"},{"inputs":[],"name":"getContractInfo","outputs":[{"internalType":"address","name":"_alice","type":"address"},{"internalType":"address","name":"_bob","type":"address"},{"internalType":"uint256","name":"_timelock","type":"uint256"},{"internalType":"bytes32","name":"_hashlock","type":"bytes32"},{"internalType":"uint256","name":"_amount","type":"uint256"},{"internalType":"uint256","name":"_balance","type":"uint256"}],"stateMutability":"view","type":"function"},{"inputs":[],"name":"hashlock","outputs":[{"internalType":"bytes32","name":"","type":"bytes32"}],"stateMutability":"view","type":"function"},{"inputs":[],"name":"isTimelockExpired","outputs":[{"internalType":"bool","name":"","type":"bool"}],"stateMutability":"view","type":"function"},{"inputs":[{"internalType":"bytes32","name":"secret","type":"bytes32"}],"name":"isValidSecret","outputs":[{"internalType":"bool","name":"","type":"bool"}],"stateMutability":"view","type":"function"},{"inputs":[],"name":"timelock","outputs":[{"internalType":"uint256","name":"","type":"uint256"}],"stateMutability":"view","type":"function"}],"evm":{"bytecode":{"linkReferences":{},"object":"610120601f610ab038819003918201601f1916830191906001600160401b038311848410176102695781606092859260409586528339810103126102645781516001600160a01b0381169081810361026457602090838286015195015190831561022257428611156101d257811561018e57341561014a573360805260a0528460c0528060e05261010094348652845192348452830152838201527f4c0624340482ea323116d30b912b977a0a6d143228c286bb5f8a63be0149bfd860603392a3516108309182610280833960805182818160b10152818161022f015261030c015260a05182818161016f015281816102540152610527015260c05182818160fb015281816101380152818161027b0152818161033f015261055e015260e0518281816101ef015281816102a3015281816104d001526105a90152518181816101b501526102c90152f35b845162461bcd60e51b815260048101849052601d60248201527f4854434c3a20436f6e7472616374206d7573742062652066756e6465640000006044820152606490fd5b845162461bcd60e51b815260048101849052601d60248201527f4854434c3a20486173686c6f636b2063616e6e6f74206265207a65726f0000006044820152606490fd5b845162461bcd60e51b8152600481018490526024808201527f4854434c3a2054696d656c6f636b206d75737420626520696e207468652066756044820152637475726560e01b6064820152608490fd5b60648386519062461bcd60e51b825280600483015260248201527f4854434c3a20426f6220616464726573732063616e6e6f74206265207a65726f6044820152fd5b600080fd5b634e487b7160e01b600052604160045260246000fdfe608060408181526004918236101561001657600080fd5b600092833560e01c918263054eb53b1461050f5750816312065fe0146104f45781632c2f1bf41461049c57816346e5cfd1146102f8575080637cc1f86714610212578063a782086e146101d8578063aa8c217c1461019e578063c09cec771461015b578063d33219b414610121578063fa132ee6146100e45763fb47e3a21461009e57600080fd5b346100e057816003193601126100e057517f00000000000000000000000000000000000000000000000000000000000000006001600160a01b03168152602090f35b5080fd5b50346100e057816003193601126100e057602090517f00000000000000000000000000000000000000000000000000000000000000004210158152f35b50346100e057816003193601126100e057602090517f00000000000000000000000000000000000000000000000000000000000000008152f35b50346100e057816003193601126100e057517f00000000000000000000000000000000000000000000000000000000000000006001600160a01b03168152602090f35b50346100e057816003193601126100e057602090517f00000000000000000000000000000000000000000000000000000000000000008152f35b50346100e057816003193601126100e057602090517f00000000000000000000000000000000000000000000000000000000000000008152f35b50346100e057816003193601126100e05780516001600160a01b037f0000000000000000000000000000000000000000000000000000000000000000811682527f00000000000000000000000000000000000000000000000000000000000000001660208201527f0000000000000000000000000000000000000000000000000000000000000000918101919091527f000000000000000000000000000000000000000000000000000000000000000060608201527f000000000000000000000000000000000000000000000000000000000000000060808201524760a082015260c090f35b9050346104985782600319360112610498577f00000000000000000000000000000000000000000000000000000000000000006001600160a01b03169133839003610445577f000000000000000000000000000000000000000000000000000000000000000042106103f75761036f471515610731565b47918480808086885af16103816107af565b50156103b557507f6e8f2b5f31deaabbb38c3d8a7f52c805c19731be346ebaeabf8ceb4a1e4a77e99160209151908152a280f35b6020606492519162461bcd60e51b8352820152601e60248201527f4854434c3a205472616e7366657220746f20416c696365206661696c656400006044820152fd5b906020608492519162461bcd60e51b8352820152602260248201527f4854434c3a2054696d656c6f636b20686173206e6f7420657870697265642079604482015261195d60f21b6064820152fd5b906020608492519162461bcd60e51b8352820152602760248201527f4854434c3a204f6e6c7920416c6963652063616e2063616c6c207468697320666044820152663ab731ba34b7b760c91b6064820152fd5b8280fd5b90503461049857602036600319011261049857602092508151838101913582528381526104c88161077d565b5190209051907f0000000000000000000000000000000000000000000000000000000000000000148152f35b5050346100e057816003193601126100e05751478152602090f35b84908434610498576020938460031936011261072d577f00000000000000000000000000000000000000000000000000000000000000006001600160a01b031692813590338590036106de57507f00000000000000000000000000000000000000000000000000000000000000004210156106915761058f471515610731565b8251868101908282528781526105a48161077d565b5190207f0000000000000000000000000000000000000000000000000000000000000000036106585747918580808086895af16105df6107af565b501561061557507e3019633028d81edf58f587c3396250338e5a4db99f1e77b3c38e08d57baf709394958351928352820152a280f35b835162461bcd60e51b8152908101879052601c60248201527f4854434c3a205472616e7366657220746f20426f62206661696c6564000000006044820152606490fd5b5084606492519162461bcd60e51b83528201526014602482015273121510d30e88125b9d985b1a59081cd958dc995d60621b6044820152fd5b5084608492519162461bcd60e51b8352820152602260248201527f4854434c3a2054696d656c6f636b2068617320616c7265616479206578706972604482015261195960f21b6064820152fd5b62461bcd60e51b8152828101879052602560248201527f4854434c3a204f6e6c7920426f622063616e2063616c6c20746869732066756e60448201526431ba34b7b760d91b6064820152608490fd5b8380fd5b1561073857565b60405162461bcd60e51b815260206004820152601a60248201527f4854434c3a204e6f2066756e647320746f2077697468647261770000000000006044820152606490fd5b6040810190811067ffffffffffffffff82111761079957604052565b634e487b7160e01b600052604160045260246000fd5b3d156107f55767ffffffffffffffff903d8281116107995760405192601f8201601f19908116603f01168401908111848210176107995760405282523d6000602084013e565b60609056fea26469706673582212203198f08d7d1b352d881dd850bfa42c25d0f3805c72b9cb345b66cd5de4a9a20b64736f6c63430008130033","opcodes":"PUSH2 0x120 PUSH1 0x1F PUSH2 0xAB0 CODESIZE DUP2 SWAP1 SUB SWAP2 DUP3 ADD PUSH1 0x1F NOT AND DUP4 ADD SWAP2 SWAP1 PUSH1 0x1 PUSH1 0x1 PUSH1 0x40 SHL SUB DUP4 GT DUP5 DUP5 LT OR PUSH2 0x269 JUMPI DUP2 PUSH1 0x60 SWAP3 DUP6 SWAP3 PUSH1 0x40 SWAP6 DUP7 MSTORE DUP4 CODECOPY DUP2 ADD SUB SLT PUSH2 0x264 JUMPI DUP2 MLOAD PUSH1 0x1 PUSH1 0x1 PUSH1 0xA0 SHL SUB DUP2 AND SWAP1 DUP2 DUP2 SUB PUSH2 0x264 JUMPI PUSH1 0x20 SWAP1 DUP4 DUP3 DUP7 ADD MLOAD SWAP6 ADD MLOAD SWAP1 DUP4 ISZERO PUSH2 0x222 JUMPI TIMESTAMP DUP7 GT ISZERO PUSH2 0x1D2 JUMPI DUP2 ISZERO PUSH2 0x18E JUMPI CALLVALUE ISZERO PUSH2 0x14A JUMPI CALLER PUSH1 0x80 MSTORE PUSH1 0xA0 MSTORE DUP5 PUSH1 0xC0 MSTORE DUP1 PUSH1 0xE0 MSTORE PUSH2 0x100 SWAP5 CALLVALUE DUP7 MSTORE DUP5 MLOAD SWAP3 CALLVALUE DUP5 MSTORE DUP4 ADD MSTORE DUP4 DUP3 ADD MSTORE PUSH32 0x4C0624340482EA323116D30B912B977A0A6D143228C286BB5F8A63BE0149BFD8 PUSH1 0x60 CALLER SWAP3 LOG3 MLOAD PUSH2 0x830 SWAP2 DUP3 PUSH2 0x280 DUP4 CODECOPY PUSH1 0x80 MLOAD DUP3 DUP2 DUP2 PUSH1 0xB1 ADD MSTORE DUP2 DUP2 PUSH2 0x22F ADD MSTORE PUSH2 0x30C ADD MSTORE PUSH1 0xA0 MLOAD DUP3 DUP2 DUP2 PUSH2 0x16F ADD MSTORE DUP2 DUP2 PUSH2 0x254 ADD MSTORE PUSH2 0x527 ADD MSTORE PUSH1 0xC0 MLOAD DUP3 DUP2 DUP2 PUSH1 0xFB ADD MSTORE DUP2 DUP2 PUSH2 0x138 ADD MSTORE DUP2 DUP2 PUSH2 0x27B ADD MSTORE DUP2 DUP2 PUSH2 0x33F ADD MSTORE PUSH2 0x55E ADD MSTORE PUSH1 0xE0 MLOAD DUP3 DUP2 DUP2 PUSH2 0x1EF ADD MSTORE DUP2 DUP2 PUSH2 0x2A3 ADD MSTORE DUP2 DUP2 PUSH2 0x4D0 ADD MSTORE PUSH2 0x5A9 ADD MSTORE MLOAD DUP2 DUP2 DUP2 PUSH2 0x1B5 ADD MSTORE PUSH2 0x2C9 ADD MSTORE RETURN JUMPDEST DUP5 MLOAD PUSH3 0x461BCD PUSH1 0xE5 SHL DUP2 MSTORE PUSH1 0x4 DUP2 ADD DUP5 SWAP1 MSTORE PUSH1 0x1D PUSH1 0x24 DUP3 ADD MSTORE PUSH32 0x4854434C3A20436F6E7472616374206D7573742062652066756E646564000000 PUSH1 0x44 DUP3 ADD MSTORE PUSH1 0x64 SWAP1 REVERT JUMPDEST DUP5 MLOAD PUSH3 0x461BCD PUSH1 0xE5 SHL DUP2 MSTORE PUSH1 0x4 DUP2 ADD DUP5 SWAP1 MSTORE PUSH1 0x1D PUSH1 0x24 DUP3 ADD MSTORE PUSH32 0x4854434C3A20486173686C6F636B2063616E6E6F74206265207A65726F000000 PUSH1 0x44 DUP3 ADD MSTORE PUSH1 0x64 SWAP1 REVERT JUMPDEST DUP5 MLOAD PUSH3 0x461BCD PUSH1 0xE5 SHL DUP2 MSTORE PUSH1 0x4 DUP2 ADD DUP5 SWAP1 MSTORE PUSH1 0x24 DUP1 DUP3 ADD MSTORE PUSH32 0x4854434C3A2054696D656C6F636B206D75737420626520696E20746865206675 PUSH1 0x44 DUP3 ADD MSTORE PUSH4 0x74757265 PUSH1 0xE0 SHL PUSH1 0x64 DUP3 ADD MSTORE PUSH1 0x84 SWAP1 REVERT JUMPDEST PUSH1 0x64 DUP4 DUP7 MLOAD SWAP1 PUSH3 0x461BCD PUSH1 0xE5 SHL DUP3 MSTORE DUP1 PUSH1 0x4 DUP4 ADD MSTORE PUSH1 0x24 DUP3 ADD MSTORE PUSH32 0x4854434C3A20426F6220616464726573732063616E6E6F74206265207A65726F PUSH1 0x44 DUP3 ADD MSTORE REVERT JUMPDEST PUSH1 0x0 DUP1 REVERT JUMPDEST PUSH4 0x4E487B71 PUSH1 0xE0 SHL PUSH1 0x0 MSTORE PUSH1 0x41 PUSH1 0x4 MSTORE PUSH1 0x24 PUSH1 0x0 REVERT INVALID PUSH1 0x80 PUSH1 0x40 DUP2 DUP2 MSTORE PUSH1 0x4 SWAP2 DUP3 CALLDATASIZE LT ISZERO PUSH2 0x16 JUMPI PUSH1 0x0 DUP1 REVERT JUMPDEST PUSH1 0x0 SWAP3 DUP4 CALLDATALOAD PUSH1 0xE0 SHR SWAP2 DUP3 PUSH4 0x54EB53B EQ PUSH2 0x50F JUMPI POP DUP2 PUSH4 0x12065FE0 EQ PUSH2 0x4F4 JUMPI DUP2 PUSH4 0x2C2F1BF4 EQ PUSH2 0x49C JUMPI DUP2 PUSH4 0x46E5CFD1 EQ PUSH2 0x2F8 JUMPI POP DUP1 PUSH4 0x7CC1F867 EQ PUSH2 0x212 JUMPI DUP1 PUSH4 0xA782086E EQ PUSH2 0x1D8 JUMPI DUP1 PUSH4 0xAA8C217C EQ PUSH2 0x19E JUMPI DUP1 PUSH4 0xC09CEC77 EQ PUSH2 0x15B JUMPI DUP1 PUSH4 0xD33219B4 EQ PUSH2 0x121 JUMPI DUP1 PUSH4 0xFA132EE6 EQ PUSH2 0xE4 JUMPI PUSH4 0xFB47E3A2 EQ PUSH2 0x9E JUMPI PUSH1 0x0 DUP1 REVERT JUMPDEST CALLVALUE PUSH2 0xE0 JUMPI DUP2 PUSH1 0x3 NOT CALLDATASIZE ADD SLT PUSH2 0xE0 JUMPI MLOAD PUSH32 0x0 PUSH1 0x1 PUSH1 0x1 PUSH1 0xA0 SHL SUB AND DUP2 MSTORE PUSH1 0x20 SWAP1 RETURN JUMPDEST POP DUP1 REVERT JUMPDEST POP CALLVALUE PUSH2 0xE0 JUMPI DUP2 PUSH1 0x3 NOT CALLDATASIZE ADD SLT PUSH2 0xE0 JUMPI PUSH1 0x20 SWAP1 MLOAD PUSH32 0x0 TIMESTAMP LT ISZERO DUP2 MSTORE RETURN JUMPDEST POP CALLVALUE PUSH2 0xE0 JUMPI DUP2 PUSH1 0x3 NOT CALLDATASIZE ADD SLT PUSH2 0xE0 JUMPI PUSH1 0x20 SWAP1 MLOAD PUSH32 0x0 DUP2 MSTORE RETURN JUMPDEST POP CALLVALUE PUSH2 0xE0 JUMPI DUP2 PUSH1 0x3 NOT CALLDATASIZE ADD SLT PUSH2 0xE0 JUMPI MLOAD PUSH32 0x0 PUSH1 0x1 PUSH1 0x1 PUSH1 0xA0 SHL SUB AND DUP2 MSTORE PUSH1 0x20 SWAP1 RETURN JUMPDEST POP CALLVALUE PUSH2 0xE0 JUMPI DUP2 PUSH1 0x3 NOT CALLDATASIZE ADD SLT PUSH2 0xE0 JUMPI PUSH1 0x20 SWAP1 MLOAD PUSH32 0x0 DUP2 MSTORE RETURN JUMPDEST POP CALLVALUE PUSH2 0xE0 JUMPI DUP2 PUSH1 0x3 NOT CALLDATASIZE ADD SLT PUSH2 0xE0 JUMPI PUSH1 0x20 SWAP1 MLOAD PUSH32 0x0 DUP2 MSTORE RETURN JUMPDEST POP CALLVALUE PUSH2 0xE0 JUMPI DUP2 PUSH1 0x3 NOT CALLDATASIZE ADD SLT PUSH2 0xE0 JUMPI DUP1 MLOAD PUSH1 0x1 PUSH1 0x1 PUSH1 0xA0 SHL SUB PUSH32 0x0 DUP2 AND DUP3 MSTORE PUSH32 0x0 AND PUSH1 0x20 DUP3 ADD MSTORE PUSH32 0x0 SWAP2 DUP2 ADD SWAP2 SWAP1 SWAP2 MSTORE PUSH32 0x0 PUSH1 0x60 DUP3 ADD MSTORE PUSH32 0x0 PUSH1 0x80 DUP3 ADD MSTORE SELFBALANCE PUSH1 0xA0 DUP3 ADD MSTORE PUSH1 0xC0 SWAP1 RETURN JUMPDEST SWAP1 POP CALLVALUE PUSH2 0x498 JUMPI DUP3 PUSH1 0x3 NOT CALLDATASIZE ADD SLT PUSH2 0x498 JUMPI PUSH32 0x0 PUSH1 0x1 PUSH1 0x1 PUSH1 0xA0 SHL SUB AND SWAP2 CALLER DUP4 SWAP1 SUB PUSH2 0x445 JUMPI PUSH32 0x0 TIMESTAMP LT PUSH2 0x3F7 JUMPI PUSH2 0x36F SELFBALANCE ISZERO ISZERO PUSH2 0x731 JUMP JUMPDEST SELFBALANCE SWAP2 DUP5 DUP1 DUP1 DUP1 DUP7 DUP9 GAS CALL PUSH2 0x381 PUSH2 0x7AF JUMP JUMPDEST POP ISZERO PUSH2 0x3B5 JUMPI POP PUSH32 0x6E8F2B5F31DEAABBB38C3D8A7F52C805C19731BE346EBAEABF8CEB4A1E4A77E9 SWAP2 PUSH1 0x20 SWAP2 MLOAD SWAP1 DUP2 MSTORE LOG2 DUP1 RETURN JUMPDEST PUSH1 0x20 PUSH1 0x64 SWAP3 MLOAD SWAP2 PUSH3 0x461BCD PUSH1 0xE5 SHL DUP4 MSTORE DUP3 ADD MSTORE PUSH1 0x1E PUSH1 0x24 DUP3 ADD MSTORE PUSH32 0x4854434C3A205472616E7366657220746F20416C696365206661696C65640000 PUSH1 0x44 DUP3 ADD MSTORE REVERT JUMPDEST SWAP1 PUSH1 0x20 PUSH1 0x84 SWAP3 MLOAD SWAP2 PUSH3 0x461BCD PUSH1 0xE5 SHL DUP4 MSTORE DUP3 ADD MSTORE PUSH1 0x22 PUSH1 0x24 DUP3 ADD MSTORE PUSH32 0x4854434C3A2054696D656C6F636B20686173206E6F7420657870697265642079 PUSH1 0x44 DUP3 ADD MSTORE PUSH2 0x195D PUSH1 0xF2 SHL PUSH1 0x64 DUP3 ADD MSTORE REVERT JUMPDEST SWAP1 PUSH1 0x20 PUSH1 0x84 SWAP3 MLOAD SWAP2 PUSH3 0x461BCD PUSH1 0xE5 SHL DUP4 MSTORE DUP3 ADD MSTORE PUSH1 0x27 PUSH1 0x24 DUP3 ADD MSTORE PUSH32 0x4854434C3A204F6E6C7920416C6963652063616E2063616C6C20746869732066 PUSH1 0x44 DUP3 ADD MSTORE PUSH7 0x3AB731BA34B7B7 PUSH1 0xC9 SHL PUSH1 0x64 DUP3 ADD MSTORE REVERT JUMPDEST DUP3 DUP1 REVERT JUMPDEST SWAP1 POP CALLVALUE PUSH2 0x498 JUMPI PUSH1 0x20 CALLDATASIZE PUSH1 0x3 NOT ADD SLT PUSH2 0x498 JUMPI PUSH1 0x20 SWAP3 POP DUP2 MLOAD DUP4 DUP2 ADD SWAP2 CALLDATALOAD DUP3 MSTORE DUP4 DUP2 MSTORE PUSH2 0x4C8 DUP2 PUSH2 0x77D JUMP JUMPDEST MLOAD SWAP1 KECCAK256 SWAP1 MLOAD SWAP1 PUSH32 0x0 EQ DUP2 MSTORE RETURN JUMPDEST POP POP CALLVALUE PUSH2 0xE0 JUMPI DUP2 PUSH1 0x3 NOT CALLDATASIZE ADD SLT PUSH2 0xE0 JUMPI MLOAD SELFBALANCE DUP2 MSTORE PUSH1 0x20 SWAP1 RETURN JUMPDEST DUP5 SWAP1 DUP5 CALLVALUE PUSH2 0x498 JUMPI PUSH1 0x20 SWAP4 DUP5 PUSH1 0x3 NOT CALLDATASIZE ADD SLT PUSH2 0x72D JUMPI PUSH32 0x0 PUSH1 0x1 PUSH1 0x1 PUSH1 0xA0 SHL SUB AND SWAP3 DUP2 CALLDATALOAD SWAP1 CALLER DUP6 SWAP1 SUB PUSH2 0x6DE JUMPI POP PUSH32 0x0 TIMESTAMP LT ISZERO PUSH2 0x691 JUMPI PUSH2 0x58F SELFBALANCE ISZERO ISZERO PUSH2 0x731 JUMP JUMPDEST DUP3 MLOAD DUP7 DUP2 ADD SWAP1 DUP3 DUP3 MSTORE DUP8 DUP2 MSTORE PUSH2 0x5A4 DUP2 PUSH2 0x77D JUMP JUMPDEST MLOAD SWAP1 KECCAK256 PUSH32 0x0 SUB PUSH2 0x658 JUMPI SELFBALANCE SWAP2 DUP6 DUP1 DUP1 DUP1 DUP7 DUP10 GAS CALL PUSH2 0x5DF PUSH2 0x7AF JUMP JUMPDEST POP ISZERO PUSH2 0x615 JUMPI POP PUSH31 0x3019633028D81EDF58F587C3396250338E5A4DB99F1E77B3C38E08D57BAF70 SWAP4 SWAP5 SWAP6 DUP4 MLOAD SWAP3 DUP4 MSTORE DUP3 ADD MSTORE LOG2 DUP1 RETURN JUMPDEST DUP4 MLOAD PUSH3 0x461BCD PUSH1 0xE5 SHL DUP2 MSTORE SWAP1 DUP2 ADD DUP8 SWAP1 MSTORE PUSH1 0x1C PUSH1 0x24 DUP3 ADD MSTORE PUSH32 0x4854434C3A205472616E7366657220746F20426F62206661696C656400000000 PUSH1 0x44 DUP3 ADD MSTORE PUSH1 0x64 SWAP1 REVERT JUMPDEST POP DUP5 PUSH1 0x64 SWAP3 MLOAD SWAP2 PUSH3 0x461BCD PUSH1 0xE5 SHL DUP4 MSTORE DUP3 ADD MSTORE PUSH1 0x14 PUSH1 0x24 DUP3 ADD MSTORE PUSH20 0x121510D30E88125B9D985B1A59081CD958DC995D PUSH1 0x62 SHL PUSH1 0x44 DUP3 ADD MSTORE REVERT JUMPDEST POP DUP5 PUSH1 0x84 SWAP3 MLOAD SWAP2 PUSH3 0x461BCD PUSH1 0xE5 SHL DUP4 MSTORE DUP3 ADD MSTORE PUSH1 0x22 PUSH1 0x24 DUP3 ADD MSTORE PUSH32 0x4854434C3A2054696D656C6F636B2068617320616C7265616479206578706972 PUSH1 0x44 DUP3 ADD MSTORE PUSH2 0x1959 PUSH1 0xF2 SHL PUSH1 0x64 DUP3 ADD MSTORE REVERT JUMPDEST PUSH3 0x461BCD PUSH1 0xE5 SHL DUP2 MSTORE DUP3 DUP2 ADD DUP8 SWAP1 MSTORE PUSH1 0x25 PUSH1 0x24 DUP3 ADD MSTORE PUSH32 0x4854434C3A204F6E6C7920426F622063616E2063616C6C20746869732066756E PUSH1 0x44 DUP3 ADD MSTORE PUSH5 0x31BA34B7B7 PUSH1 0xD9 SHL PUSH1 0x64 DUP3 ADD MSTORE PUSH1 0x84 SWAP1 REVERT JUMPDEST DUP4 DUP1 REVERT JUMPDEST ISZERO PUSH2 0x738 JUMPI JUMP JUMPDEST PUSH1 0x40 MLOAD PUSH3 0x461BCD PUSH1 0xE5 SHL DUP2 MSTORE PUSH1 0x20 PUSH1 0x4 DUP3 ADD MSTORE PUSH1 0x1A PUSH1 0x24 DUP3 ADD MSTORE PUSH32 0x4854434C3A204E6F2066756E647320746F207769746864726177000000000000 PUSH1 0x44 DUP3 ADD MSTORE PUSH1 0x64 SWAP1 REVERT JUMPDEST PUSH1 0x40 DUP2 ADD SWAP1 DUP2 LT PUSH8 0xFFFFFFFFFFFFFFFF DUP3 GT OR PUSH2 0x799 JUMPI PUSH1 0x40 MSTORE JUMP JUMPDEST PUSH4 0x4E487B71 PUSH1 0xE0 SHL PUSH1 0x0 MSTORE PUSH1 0x41 PUSH1 0x4 MSTORE PUSH1 0x24 PUSH1 0x0 REVERT JUMPDEST RETURNDATASIZE ISZERO PUSH2 0x7F5 JUMPI PUSH8 0xFFFFFFFFFFFFFFFF SWAP1 RETURNDATASIZE DUP3 DUP2 GT PUSH2 0x799 JUMPI PUSH1 0x40 MLOAD SWAP3 PUSH1 0x1F DUP3 ADD PUSH1 0x1F NOT SWAP1 DUP2 AND PUSH1 0x3F ADD AND DUP5 ADD SWAP1 DUP2 GT DUP5 DUP3 LT OR PUSH2 0x799 JUMPI PUSH1 0x40 MSTORE DUP3 MSTORE RETURNDATASIZE PUSH1 0x0 PUSH1 0x20 DUP5 ADD RETURNDATACOPY JUMP JUMPDEST PUSH1 0x60 SWAP1 JUMP INVALID LOG2 PUSH5 0x6970667358 0x22 SLT KECCAK256 BALANCE SWAP9 CREATE DUP14 PUSH30 0x1B352D881DD850BFA42C25D0F3805C72B9CB345B66CD5DE4A9A20B64736F PUSH13 0x63430008130033000000000000 "},"methodIdentifiers":{"alice()":"fb47e3a2","aliceWithdraw()":"46e5cfd1","amount()":"aa8c217c","bob()":"c09cec77","bobWithdraw(bytes32)":"054eb53b","getBalance()":"12065fe0","getContractInfo()":"7cc1f867","hashlock()":"a782086e","isTimelockExpired()":"fa132ee6","isValidSecret(bytes32)":"2c2f1bf4","timelock()":"d33219b4"}}}}}