{
  "_format": "hh-sol-artifact-1",
  "contractName": "LimitOrderProtocol",
  "sourceName": "contracts/LimitOrderProtocol.sol",
  "abi": [
    {
      "anonymous": false,
      "inputs": [
        {
          "indexed": true,
          "internalType": "uint256",
          "name": "orderId",
          "type": "uint256"
        },
        {
          "indexed": true,
          "internalType": "address",
          "name": "acceptor",
          "type": "address"
        },
        {
          "indexed": false,
          "internalType": "bytes32",
          "name": "hashlock",
          "type": "bytes32"
        },
        {
          "indexed": false,
          "internalType": "uint256",
          "name": "timelock",
          "type": "uint256"
        }
      ],
      "name": "OrderAccepted",
      "type": "event"
    },
    {
      "anonymous": false,
      "inputs": [
        {
          "indexed": true,
          "internalType": "uint256",
          "name": "orderId",
          "type": "uint256"
        },
        {
          "indexed": true,
          "internalType": "address",
          "name": "creator",
          "type": "address"
        }
      ],
      "name": "OrderCancelled",
      "type": "event"
    },
    {
      "anonymous": false,
      "inputs": [
        {
          "indexed": true,
          "internalType": "uint256",
          "name": "orderId",
          "type": "uint256"
        },
        {
          "indexed": true,
          "internalType": "address",
          "name": "creator",
          "type": "address"
        },
        {
          "indexed": false,
          "internalType": "string",
          "name": "orderData",
          "type": "string"
        }
      ],
      "name": "OrderCreated",
      "type": "event"
    },
    {
      "inputs": [
        {
          "internalType": "uint256",
          "name": "orderId",
          "type": "uint256"
        },
        {
          "internalType": "bytes32",
          "name": "hashlock",
          "type": "bytes32"
        },
        {
          "internalType": "uint256",
          "name": "timelock",
          "type": "uint256"
        }
      ],
      "name": "acceptOrder",
      "outputs": [],
      "stateMutability": "nonpayable",
      "type": "function"
    },
    {
      "inputs": [
        {
          "internalType": "uint256",
          "name": "orderId",
          "type": "uint256"
        }
      ],
      "name": "cancelOrder",
      "outputs": [],
      "stateMutability": "nonpayable",
      "type": "function"
    },
    {
      "inputs": [
        {
          "internalType": "string",
          "name": "sourceChainId",
          "type": "string"
        },
        {
          "internalType": "string",
          "name": "destChainId",
          "type": "string"
        },
        {
          "internalType": "string",
          "name": "sourceWalletAddress",
          "type": "string"
        },
        {
          "internalType": "string",
          "name": "destWalletAddress",
          "type": "string"
        },
        {
          "internalType": "string",
          "name": "sourceToken",
          "type": "string"
        },
        {
          "internalType": "string",
          "name": "destToken",
          "type": "string"
        },
        {
          "internalType": "uint256",
          "name": "sourceAmount",
          "type": "uint256"
        },
        {
          "internalType": "uint256",
          "name": "destAmount",
          "type": "uint256"
        },
        {
          "internalType": "uint256",
          "name": "deadline",
          "type": "uint256"
        }
      ],
      "name": "createOrder",
      "outputs": [],
      "stateMutability": "nonpayable",
      "type": "function"
    },
    {
      "inputs": [],
      "name": "getActiveOrders",
      "outputs": [
        {
          "internalType": "uint256[]",
          "name": "",
          "type": "uint256[]"
        }
      ],
      "stateMutability": "view",
      "type": "function"
    },
    {
      "inputs": [
        {
          "internalType": "uint256",
          "name": "orderId",
          "type": "uint256"
        }
      ],
      "name": "getOrder",
      "outputs": [
        {
          "components": [
            {
              "internalType": "string",
              "name": "sourceChainId",
              "type": "string"
            },
            {
              "internalType": "string",
              "name": "destChainId",
              "type": "string"
            },
            {
              "internalType": "string",
              "name": "sourceWalletAddress",
              "type": "string"
            },
            {
              "internalType": "string",
              "name": "destWalletAddress",
              "type": "string"
            },
            {
              "internalType": "string",
              "name": "sourceToken",
              "type": "string"
            },
            {
              "internalType": "string",
              "name": "destToken",
              "type": "string"
            },
            {
              "internalType": "uint256",
              "name": "sourceAmount",
              "type": "uint256"
            },
            {
              "internalType": "uint256",
              "name": "destAmount",
              "type": "uint256"
            },
            {
              "internalType": "uint256",
              "name": "deadline",
              "type": "uint256"
            },
            {
              "internalType": "address",
              "name": "creator",
              "type": "address"
            },
            {
              "internalType": "bool",
              "name": "isActive",
              "type": "bool"
            },
            {
              "internalType": "bool",
              "name": "isAccepted",
              "type": "bool"
            },
            {
              "internalType": "address",
              "name": "acceptor",
              "type": "address"
            },
            {
              "internalType": "bytes32",
              "name": "hashlock",
              "type": "bytes32"
            },
            {
              "internalType": "uint256",
              "name": "timelock",
              "type": "uint256"
            }
          ],
          "internalType": "struct LimitOrderProtocol.Order",
          "name": "",
          "type": "tuple"
        }
      ],
      "stateMutability": "view",
      "type": "function"
    },
    {
      "inputs": [
        {
          "internalType": "address",
          "name": "acceptor",
          "type": "address"
        }
      ],
      "name": "getOrdersByAcceptor",
      "outputs": [
        {
          "internalType": "uint256[]",
          "name": "",
          "type": "uint256[]"
        }
      ],
      "stateMutability": "view",
      "type": "function"
    },
    {
      "inputs": [
        {
          "internalType": "address",
          "name": "creator",
          "type": "address"
        }
      ],
      "name": "getOrdersByCreator",
      "outputs": [
        {
          "internalType": "uint256[]",
          "name": "",
          "type": "uint256[]"
        }
      ],
      "stateMutability": "view",
      "type": "function"
    },
    {
      "inputs": [
        {
          "internalType": "uint256",
          "name": "orderId",
          "type": "uint256"
        }
      ],
      "name": "isReadyForAcceptance",
      "outputs": [
        {
          "internalType": "bool",
          "name": "",
          "type": "bool"
        }
      ],
      "stateMutability": "view",
      "type": "function"
    },
    {
      "inputs": [
        {
          "internalType": "uint256",
          "name": "orderId",
          "type": "uint256"
        }
      ],
      "name": "isReadyForHTCL",
      "outputs": [
        {
          "internalType": "bool",
          "name": "",
          "type": "bool"
        }
      ],
      "stateMutability": "view",
      "type": "function"
    },
    {
      "inputs": [],
      "name": "nextOrderId",
      "outputs": [
        {
          "internalType": "uint256",
          "name": "",
          "type": "uint256"
        }
      ],
      "stateMutability": "view",
      "type": "function"
    },
    {
      "inputs": [
        {
          "internalType": "uint256",
          "name": "",
          "type": "uint256"
        }
      ],
      "name": "orders",
      "outputs": [
        {
          "internalType": "string",
          "name": "sourceChainId",
          "type": "string"
        },
        {
          "internalType": "string",
          "name": "destChainId",
          "type": "string"
        },
        {
          "internalType": "string",
          "name": "sourceWalletAddress",
          "type": "string"
        },
        {
          "internalType": "string",
          "name": "destWalletAddress",
          "type": "string"
        },
        {
          "internalType": "string",
          "name": "sourceToken",
          "type": "string"
        },
        {
          "internalType": "string",
          "name": "destToken",
          "type": "string"
        },
        {
          "internalType": "uint256",
          "name": "sourceAmount",
          "type": "uint256"
        },
        {
          "internalType": "uint256",
          "name": "destAmount",
          "type": "uint256"
        },
        {
          "internalType": "uint256",
          "name": "deadline",
          "type": "uint256"
        },
        {
          "internalType": "address",
          "name": "creator",
          "type": "address"
        },
        {
          "internalType": "bool",
          "name": "isActive",
          "type": "bool"
        },
        {
          "internalType": "bool",
          "name": "isAccepted",
          "type": "bool"
        },
        {
          "internalType": "address",
          "name": "acceptor",
          "type": "address"
        },
        {
          "internalType": "bytes32",
          "name": "hashlock",
          "type": "bytes32"
        },
        {
          "internalType": "uint256",
          "name": "timelock",
          "type": "uint256"
        }
      ],
      "stateMutability": "view",
      "type": "function"
    }
  ],
  "bytecode": "0x6080806040523461001657611ec5908161001c8239f35b600080fdfe6080604052600436101561001257600080fd5b60003560e01c806286e68b14611a2c5780630fda1f551461190f578063268e8616146118515780632a58b33014611833578063514fcac7146116ea578063585944191461148a578063a85c38ef14611333578063bacb91e114611200578063c60729ec1461112d578063d09ef24114610ea05763ff28cb351461009457600080fd5b34610e9b57610120366003190112610e9b576004356001600160401b038111610e9b576100c5903690600401611c8f565b6024356001600160401b038111610e9b576100e4903690600401611c8f565b60449081356001600160401b038111610e9b57610105903690600401611c8f565b9060649283356001600160401b038111610e9b57610127903690600401611c8f565b906084356001600160401b038111610e9b57610147903690600401611c8f565b9060a4356001600160401b038111610e9b57610167903690600401611c8f565b95875115610e4c57845115610dfe57855115610da857835115610d545760c43515610cff5760e43515610cac5742610104351115610c5d575050600054946101ae86611cd6565b6000556040516101bd81611b49565b8781528460208201528560408201528360608201528260808201528160a082015260c43560c082015260e43560e0820152610104356101008201523361012082015260016101408201526000610160820152600061018082015260006101a082015260006101c082015286600052600160205260406000209080518051906001600160401b0382116108405781906102558554611b0f565b601f8111610c0d575b50602090601f8311600114610ba157600092610b96575b50508160011b916000199060031b1c19161782555b60208101518051906001600160401b0382116108405781906102af6001860154611b0f565b601f8111610b43575b50602090601f8311600114610ad157600092610ac6575b50508160011b916000199060031b1c19161760018301555b60408101518051906001600160401b03821161084057819061030c6002860154611b0f565b601f8111610a73575b50602090601f8311600114610a01576000926109f6575b50508160011b916000199060031b1c19161760028301555b60608101518051906001600160401b0382116108405781906103696003860154611b0f565b601f81116109a3575b50602090601f831160011461093157600092610926575b50508160011b916000199060031b1c19161760038301555b60808101518051906001600160401b0382116108405781906103c66004860154611b0f565b601f81116108d3575b50602090601f831160011461086157600092610856575b50508160011b916000199060031b1c19161760048301555b60a08101518051906001600160401b038211610840576104216005850154611b0f565b601f81116107f9575b50602090601f8311600114610774576101c061072c9a97948460c59b98956105629f9b9895600c95600092610769575b50508160011b916000199060031b1c19161760058501555b60c0810151600685015560e0810151600785015561010081015160088501556101208101516009850180546101408401516101608501516001600160b01b03199092166001600160a01b039485161790151560a01b60ff60a01b161790151560a81b60ff60a81b16179055610180820151600a860180546001600160a01b031916919092161790556101a0810151600b850155015191015561051560c435611dba565b9161052160e435611dba565b9361052e61010435611dba565b9660326040519d8e809b713d9139b7bab931b2a1b430b4b724b2111d1160711b602083015260208151948593019101611c2c565b89019661088b60f21b978860328201526e113232b9ba21b430b4b724b2111d1160891b603482015261059e825180936020604385019101611c2c565b018760438201527f22736f7572636557616c6c657441646472657373223a2200000000000000000060458201526105df825180936020605c85019101611c2c565b0186605c82015274113232b9ba2bb0b63632ba20b2323932b9b9911d1160591b605e820152610618825180936020607385019101611c2c565b018560738201526e1139b7bab931b2aa37b5b2b7111d1160891b607582015261064b825180936020608485019101611c2c565b018460848201526c113232b9ba2a37b5b2b7111d1160991b608682015261067c825180936020609385019101611c2c565b018360938201526f1139b7bab931b2a0b6b7bab73a111d1160811b60958201526106b082518093602060a585019101611c2c565b018260a58201526d113232b9ba20b6b7bab73a111d1160911b60a78201526106e282518093602060b585019101611c2c565b019060b58201526b113232b0b23634b732911d1160a11b60b782015261071282518093602060c385019101611c2c565b0161227d60f01b60c38201520360a5810185520183611b65565b7fc605452f703aebd186bba1ef02787b6fabb8bb7f8ca45bd2d05a18c24f1c9be9604051602081528061076433956020830190611c4f565b0390a3005b01519050388061045a565b906005850160005260206000209160005b601f19851681106107e1575061072c9a97946001856105629f9b9895600c956101c09560c59f9c99601f198116106107c8575b505050811b016005850155610472565b015160001960f88460031b161c191690553880806107b8565b91926020600181928685015181550194019201610785565b600585016000526020600020601f840160051c810160208510610839575b601f830160051c8201811061082d57505061042a565b60008155600101610817565b5080610817565b634e487b7160e01b600052604160045260246000fd5b0151905038806103e6565b9250600485016000526020600020906000935b601f19841685106108b8576001945083601f1981161061089f575b505050811b0160048301556103fe565b015160001960f88460031b161c1916905538808061088f565b81810151835560209485019460019093019290910190610874565b909150600485016000526020600020601f840160051c81016020851061091f575b90849392915b601f830160051c820181106109105750506103cf565b600081558594506001016108fa565b50806108f4565b015190503880610389565b9250600385016000526020600020906000935b601f1984168510610988576001945083601f1981161061096f575b505050811b0160038301556103a1565b015160001960f88460031b161c1916905538808061095f565b81810151835560209485019460019093019290910190610944565b909150600385016000526020600020601f840160051c8101602085106109ef575b90849392915b601f830160051c820181106109e0575050610372565b600081558594506001016109ca565b50806109c4565b01519050388061032c565b9250600285016000526020600020906000935b601f1984168510610a58576001945083601f19811610610a3f575b505050811b016002830155610344565b015160001960f88460031b161c19169055388080610a2f565b81810151835560209485019460019093019290910190610a14565b909150600285016000526020600020601f840160051c810160208510610abf575b90849392915b601f830160051c82018110610ab0575050610315565b60008155859450600101610a9a565b5080610a94565b0151905038806102cf565b9250600185016000526020600020906000935b601f1984168510610b28576001945083601f19811610610b0f575b505050811b0160018301556102e7565b015160001960f88460031b161c19169055388080610aff565b81810151835560209485019460019093019290910190610ae4565b909150600185016000526020600020601f840160051c810160208510610b8f575b90849392915b601f830160051c82018110610b805750506102b8565b60008155859450600101610b6a565b5080610b64565b015190503880610275565b9250846000526020600020906000935b601f1984168510610bf2576001945083601f19811610610bd9575b505050811b01825561028a565b015160001960f88460031b161c19169055388080610bcc565b81810151835560209485019460019093019290910190610bb1565b909150846000526020600020601f840160051c810160208510610c56575b90849392915b601f830160051c82018110610c4757505061025e565b60008155859450600101610c31565b5080610c2b565b906275726560e81b6084927f4c4f503a20446561646c696e65206d75737420626520696e20746865206675746040519362461bcd60e51b85526020600486015260236024860152840152820152fd5b90660207468616e20360cc1b6084927f4c4f503a204465737420616d6f756e74206d75737420626520677265617465726040519362461bcd60e51b85526020600486015260276024860152840152820152fd5b906806572207468616e20360bc1b6084927f4c4f503a20536f7572636520616d6f756e74206d7573742062652067726561746040519362461bcd60e51b85526020600486015260296024860152840152820152fd5b9067626520656d70747960c01b6084927f4c4f503a20446573742077616c6c657420616464726573732063616e6e6f74206040519362461bcd60e51b85526020600486015260286024860152840152820152fd5b90697420626520656d70747960b01b6084927f4c4f503a20536f757263652077616c6c657420616464726573732063616e6e6f6040519362461bcd60e51b855260206004860152602a6024860152840152820152fd5b9061747960f01b6084927f4c4f503a204465737420636861696e2049442063616e6e6f7420626520656d706040519362461bcd60e51b85526020600486015260226024860152840152820152fd5b90636d70747960e01b6084927f4c4f503a20536f7572636520636861696e2049442063616e6e6f7420626520656040519362461bcd60e51b855260206004860152602480860152840152820152fd5b600080fd5b34610e9b576020366003190112610e9b5760006101c0604051610ec281611b49565b60608152606060208201526060604082015260608082015260606080820152606060a08201528260c08201528260e08201528261010082015282610120820152826101408201528261016082015282610180820152826101a0820152015260043560005260016020526040600020600c60405191610f3f83611b49565b610f4881611b86565b8352610f5660018201611b86565b6020840152610f6760028201611b86565b6040840152610f7860038201611b86565b6060840152610f8960048201611b86565b6080840152610f9a60058201611b86565b60a0840152600681015460c0840152600781015460e0840152600881015461010084015260ff600982015460018060a01b038116610120860152818160a01c16151561014086015260a81c16151561016084015260018060a01b03600a82015416610180840152600b8101546101a084015201546101c08201526040518091602082526101c06110b161103b83516101e06020870152610200860190611c4f565b61109c611088611074611060602088015194601f1995868b83030160408c0152611c4f565b6040880151858a83030160608b0152611c4f565b6060870151848983030160808a0152611c4f565b6080860151838883030160a0890152611c4f565b9060a0850151908683030160c0870152611c4f565b9160c081015160e085015260e081015161010085015261010081015161012085015260018060a01b03610120820151166101408501526101408101511515610160850152610160810151151561018085015260018060a01b03610180820151166101a08501526101a08101518285015201516101e08301520390f35b34610e9b57602080600319360112610e9b576001600160a01b039060043582811690819003610e9b576000549061116382611d5e565b9360009360005b8481106111bd57868661117c81611d5e565b9160005b82811061119957604051806111958682611ad4565b0390f35b806111a76111b89284611d90565b516111b28287611d90565b52611cd6565b611180565b80600052600182528383600a6040600020015416146111e5575b6111e090611cd6565b61116a565b946111f881876111b26111e0948b611d90565b9590506111d7565b34610e9b576020366003190112610e9b576004356000526001602052602060406000206040519061123082611b49565b61123981611b86565b825261124760018201611b86565b8383015261125760028201611b86565b604083015261126860038201611b86565b606083015261127960048201611b86565b608083015261128a60058201611b86565b60a0830152600681015460c0830152600781015460e0830152600881015490816101008401526009810154926101c0600c60018060a01b039384871661012085015260ff808860a01c161515978861014087015260a81c1615948515610160860152600a82015416610180850152600b8101546101a085015201549101528261132b575b5081611320575b506040519015158152f35b905042111582611315565b91508361130e565b34610e9b576020366003190112610e9b576004356000526001602052604060002061135d81611b86565b61136960018301611b86565b9161137660028201611b86565b61138260038301611b86565b9161138f60048201611b86565b9261139c60058301611b86565b6006830154946007840154600885015490600986015493600160a01b600190039384600a8901541696600b89015498600c0154996040519d8e809e6101e080835282016113e891611c4f565b9080820390602001526113fa91611c4f565b8d810360408f015261140b91611c4f565b8c810360608e015261141c91611c4f565b8b810360808d015261142d91611c4f565b8a810360a08c015261143e91611c4f565b9760c08a015260e089015261010088015281166101208701528060a01c60ff16151561014087015260a81c60ff1615156101608601526101808501526101a08401526101c08301520390f35b34610e9b576060366003190112610e9b576004356024908135916044803591836000526020916001835260018060a01b0360096040600020015416156116a85784600052600183526114e960ff60096040600020015460a01c16611cfb565b8460005260018352600860406000200154421161166d578460005260018352604060002091600983019182549160ff8360a81c1661162b5788156115e9574287111561159b57505091600c918593600160a81b9060ff60a81b1916179055600a8101336bffffffffffffffffffffffff60a01b82541617905586600b82015501556040519384528301527f90efb7a1c1eab91f56697d1041b20b073759777c18c0da45c84920971e072b9460403393a3005b7f4c4f503a2054696d656c6f636b206d75737420626520696e2074686520667574608492602388936040519462461bcd60e51b865260048601528401528201526275726560e81b6064820152fd5b7f4c4f503a20486173686c6f636b2063616e6e6f74206265207a65726f00000000606492601c88936040519462461bcd60e51b86526004860152840152820152fd5b7f4c4f503a204f7264657220616c72656164792061636365707465640000000000606492601b88936040519462461bcd60e51b86526004860152840152820152fd5b606493506016751313d40e8813dc99195c881a185cc8195e1c1a5c995960521b926040519462461bcd60e51b86526004860152840152820152fd5b6064935060197f4c4f503a204f7264657220646f6573206e6f7420657869737400000000000000926040519462461bcd60e51b86526004860152840152820152fd5b34610e9b57602080600319360112610e9b5760043560008181526001835260409020600901549091906001600160a01b031633036117e157816000526001815261174160ff60096040600020015460a01c16611cfb565b816000526001815260096040600020019081549060ff8260a81c16611793575060ff60a01b1916905533907fc0362da6f2ff36b382b34aec0814f6b3cdf89f5ef282a1d1f114d0c0b036d596600080a3005b6084906040519062461bcd60e51b82526004820152602160248201527f4c4f503a2043616e6e6f742063616e63656c206163636570746564206f7264656044820152603960f91b6064820152fd5b6084906040519062461bcd60e51b82526004820152602560248201527f4c4f503a204f6e6c79206f726465722063726561746f722063616e2063616c6c604482015264207468697360d81b6064820152fd5b34610e9b576000366003190112610e9b576020600054604051908152f35b34610e9b57602080600319360112610e9b576001600160a01b039060043582811690819003610e9b576000549061188782611d5e565b9360009360005b8481106118cc5786866118a081611d5e565b9160005b8281106118b957604051806111958682611ad4565b806111a76118c79284611d90565b6118a4565b8060005260018252838360096040600020015416146118f4575b6118ef90611cd6565b61188e565b9461190781876111b26118ef948b611d90565b9590506118e6565b34610e9b576020366003190112610e9b5760043560005260016020526020604060002060405161193e81611b49565b61194782611b86565b815261195560018301611b86565b8382015261196560028301611b86565b604082015261197660038301611b86565b606082015261198760048301611b86565b608082015261199860058301611b86565b60a0820152600682015460c0820152600782015460e082015260088201546101008201526009820154906101c0600c60018060a01b039485851661012085015260ff808660a01c161515958661014087015260a81c1615159586610160860152600a82015416610180850152600b8101546101a0850152015491015281611a2457506040519015158152f35b905082611315565b34610e9b576000366003190112610e9b57600054611a4981611d5e565b9060009060005b818110611a8e575050611a6281611d5e565b9160005b828110611a7b57604051806111958682611ad4565b806111a7611a899284611d90565b611a66565b80600052600160205260ff60096040600020015460a01c16611ab9575b611ab490611cd6565b611a50565b91611acc81846111b2611ab49488611d90565b929050611aab565b6020908160408183019282815285518094520193019160005b828110611afb575050505090565b835185529381019392810192600101611aed565b90600182811c92168015611b3f575b6020831014611b2957565b634e487b7160e01b600052602260045260246000fd5b91607f1691611b1e565b6101e081019081106001600160401b0382111761084057604052565b90601f801991011681019081106001600160401b0382111761084057604052565b9060405191826000825492611b9a84611b0f565b908184526001948581169081600014611c095750600114611bc6575b5050611bc492500383611b65565b565b9093915060005260209081600020936000915b818310611bf1575050611bc493508201013880611bb6565b85548884018501529485019487945091830191611bd9565b915050611bc494506020925060ff191682840152151560051b8201013880611bb6565b60005b838110611c3f5750506000910152565b8181015183820152602001611c2f565b90602091611c6881518092818552858086019101611c2c565b601f01601f1916010190565b6001600160401b03811161084057601f01601f191660200190565b81601f82011215610e9b57803590611ca682611c74565b92611cb46040519485611b65565b82845260208383010111610e9b57816000926020809301838601378301015290565b6000198114611ce55760010190565b634e487b7160e01b600052601160045260246000fd5b15611d0257565b60405162461bcd60e51b815260206004820152601860248201527f4c4f503a204f72646572206973206e6f742061637469766500000000000000006044820152606490fd5b6001600160401b0381116108405760051b60200190565b90611d6882611d47565b611d756040519182611b65565b8281528092611d86601f1991611d47565b0190602036910137565b8051821015611da45760209160051b010190565b634e487b7160e01b600052603260045260246000fd5b8015611e6157600081805b611e4d5750611dd381611c74565b90611de16040519283611b65565b808252601f19611df082611c74565b013660208401375b80928015611e46576000198201918211611ce5578193600a926030908484068201809211611ce55785511115611da45760f81b6001600160f81b03191660001a908401601f01530491611df8565b5050905090565b90611e59600a91611cd6565b910480611dc5565b50604051604081018181106001600160401b038211176108405760405260018152600360fc1b60208201529056fea26469706673582212201a2b99b4046fa6c72edb70bce9e7cee16f70b2908d5d44f3840664ec19ceea0564736f6c63430008130033",
  "linkReferences": {},
  "deployedLinkReferences": {}
}