{
  "_format": "hh-sol-artifact-1",
  "contractName": "HTCL",
  "sourceName": "contracts/HTCL.sol",
  "abi": [
    {
      "inputs": [
        {
          "internalType": "address",
          "name": "_bob",
          "type": "address"
        },
        {
          "internalType": "uint256",
          "name": "_timelock",
          "type": "uint256"
        },
        {
          "internalType": "bytes32",
          "name": "_hashlock",
          "type": "bytes32"
        }
      ],
      "stateMutability": "payable",
      "type": "constructor"
    },
    {
      "anonymous": false,
      "inputs": [
        {
          "indexed": true,
          "internalType": "address",
          "name": "alice",
          "type": "address"
        },
        {
          "indexed": false,
          "internalType": "uint256",
          "name": "amount",
          "type": "uint256"
        }
      ],
      "name": "AliceWithdrawn",
      "type": "event"
    },
    {
      "anonymous": false,
      "inputs": [
        {
          "indexed": true,
          "internalType": "address",
          "name": "bob",
          "type": "address"
        },
        {
          "indexed": false,
          "internalType": "uint256",
          "name": "amount",
          "type": "uint256"
        },
        {
          "indexed": false,
          "internalType": "bytes32",
          "name": "secret",
          "type": "bytes32"
        }
      ],
      "name": "BobWithdrawn",
      "type": "event"
    },
    {
      "anonymous": false,
      "inputs": [
        {
          "indexed": true,
          "internalType": "address",
          "name": "creator",
          "type": "address"
        },
        {
          "indexed": true,
          "internalType": "address",
          "name": "recipient",
          "type": "address"
        },
        {
          "indexed": false,
          "internalType": "uint256",
          "name": "amount",
          "type": "uint256"
        },
        {
          "indexed": false,
          "internalType": "uint256",
          "name": "timelock",
          "type": "uint256"
        },
        {
          "indexed": false,
          "internalType": "bytes32",
          "name": "hashlock",
          "type": "bytes32"
        }
      ],
      "name": "HTCLCreated",
      "type": "event"
    },
    {
      "anonymous": false,
      "inputs": [
        {
          "indexed": true,
          "internalType": "address",
          "name": "creator",
          "type": "address"
        },
        {
          "indexed": false,
          "internalType": "uint256",
          "name": "amount",
          "type": "uint256"
        }
      ],
      "name": "HTCLExpired",
      "type": "event"
    },
    {
      "inputs": [],
      "name": "alice",
      "outputs": [
        {
          "internalType": "address",
          "name": "",
          "type": "address"
        }
      ],
      "stateMutability": "view",
      "type": "function"
    },
    {
      "inputs": [],
      "name": "aliceWithdraw",
      "outputs": [],
      "stateMutability": "nonpayable",
      "type": "function"
    },
    {
      "inputs": [],
      "name": "amount",
      "outputs": [
        {
          "internalType": "uint256",
          "name": "",
          "type": "uint256"
        }
      ],
      "stateMutability": "view",
      "type": "function"
    },
    {
      "inputs": [],
      "name": "bob",
      "outputs": [
        {
          "internalType": "address",
          "name": "",
          "type": "address"
        }
      ],
      "stateMutability": "view",
      "type": "function"
    },
    {
      "inputs": [
        {
          "internalType": "bytes32",
          "name": "secret",
          "type": "bytes32"
        }
      ],
      "name": "bobWithdraw",
      "outputs": [],
      "stateMutability": "nonpayable",
      "type": "function"
    },
    {
      "inputs": [],
      "name": "getBalance",
      "outputs": [
        {
          "internalType": "uint256",
          "name": "",
          "type": "uint256"
        }
      ],
      "stateMutability": "view",
      "type": "function"
    },
    {
      "inputs": [],
      "name": "getContractInfo",
      "outputs": [
        {
          "internalType": "address",
          "name": "_alice",
          "type": "address"
        },
        {
          "internalType": "address",
          "name": "_bob",
          "type": "address"
        },
        {
          "internalType": "uint256",
          "name": "_timelock",
          "type": "uint256"
        },
        {
          "internalType": "bytes32",
          "name": "_hashlock",
          "type": "bytes32"
        },
        {
          "internalType": "uint256",
          "name": "_amount",
          "type": "uint256"
        },
        {
          "internalType": "uint256",
          "name": "_balance",
          "type": "uint256"
        }
      ],
      "stateMutability": "view",
      "type": "function"
    },
    {
      "inputs": [],
      "name": "hashlock",
      "outputs": [
        {
          "internalType": "bytes32",
          "name": "",
          "type": "bytes32"
        }
      ],
      "stateMutability": "view",
      "type": "function"
    },
    {
      "inputs": [],
      "name": "isTimelockExpired",
      "outputs": [
        {
          "internalType": "bool",
          "name": "",
          "type": "bool"
        }
      ],
      "stateMutability": "view",
      "type": "function"
    },
    {
      "inputs": [
        {
          "internalType": "bytes32",
          "name": "secret",
          "type": "bytes32"
        }
      ],
      "name": "isValidSecret",
      "outputs": [
        {
          "internalType": "bool",
          "name": "",
          "type": "bool"
        }
      ],
      "stateMutability": "view",
      "type": "function"
    },
    {
      "inputs": [],
      "name": "timelock",
      "outputs": [
        {
          "internalType": "uint256",
          "name": "",
          "type": "uint256"
        }
      ],
      "stateMutability": "view",
      "type": "function"
    }
  ],
  "bytecode": "0x610120601f610ab038819003918201601f1916830191906001600160401b038311848410176102695781606092859260409586528339810103126102645781516001600160a01b0381169081810361026457602090838286015195015190831561022257428611156101d257811561018e57341561014a573360805260a0528460c0528060e05261010094348652845192348452830152838201527f4c0624340482ea323116d30b912b977a0a6d143228c286bb5f8a63be0149bfd860603392a3516108309182610280833960805182818160b10152818161022f015261030c015260a05182818161016f015281816102540152610527015260c05182818160fb015281816101380152818161027b0152818161033f015261055e015260e0518281816101ef015281816102a3015281816104d001526105a90152518181816101b501526102c90152f35b845162461bcd60e51b815260048101849052601d60248201527f4854434c3a20436f6e7472616374206d7573742062652066756e6465640000006044820152606490fd5b845162461bcd60e51b815260048101849052601d60248201527f4854434c3a20486173686c6f636b2063616e6e6f74206265207a65726f0000006044820152606490fd5b845162461bcd60e51b8152600481018490526024808201527f4854434c3a2054696d656c6f636b206d75737420626520696e207468652066756044820152637475726560e01b6064820152608490fd5b60648386519062461bcd60e51b825280600483015260248201527f4854434c3a20426f6220616464726573732063616e6e6f74206265207a65726f6044820152fd5b600080fd5b634e487b7160e01b600052604160045260246000fdfe608060408181526004918236101561001657600080fd5b600092833560e01c918263054eb53b1461050f5750816312065fe0146104f45781632c2f1bf41461049c57816346e5cfd1146102f8575080637cc1f86714610212578063a782086e146101d8578063aa8c217c1461019e578063c09cec771461015b578063d33219b414610121578063fa132ee6146100e45763fb47e3a21461009e57600080fd5b346100e057816003193601126100e057517f00000000000000000000000000000000000000000000000000000000000000006001600160a01b03168152602090f35b5080fd5b50346100e057816003193601126100e057602090517f00000000000000000000000000000000000000000000000000000000000000004210158152f35b50346100e057816003193601126100e057602090517f00000000000000000000000000000000000000000000000000000000000000008152f35b50346100e057816003193601126100e057517f00000000000000000000000000000000000000000000000000000000000000006001600160a01b03168152602090f35b50346100e057816003193601126100e057602090517f00000000000000000000000000000000000000000000000000000000000000008152f35b50346100e057816003193601126100e057602090517f00000000000000000000000000000000000000000000000000000000000000008152f35b50346100e057816003193601126100e05780516001600160a01b037f0000000000000000000000000000000000000000000000000000000000000000811682527f00000000000000000000000000000000000000000000000000000000000000001660208201527f0000000000000000000000000000000000000000000000000000000000000000918101919091527f000000000000000000000000000000000000000000000000000000000000000060608201527f000000000000000000000000000000000000000000000000000000000000000060808201524760a082015260c090f35b9050346104985782600319360112610498577f00000000000000000000000000000000000000000000000000000000000000006001600160a01b03169133839003610445577f000000000000000000000000000000000000000000000000000000000000000042106103f75761036f471515610731565b47918480808086885af16103816107af565b50156103b557507f6e8f2b5f31deaabbb38c3d8a7f52c805c19731be346ebaeabf8ceb4a1e4a77e99160209151908152a280f35b6020606492519162461bcd60e51b8352820152601e60248201527f4854434c3a205472616e7366657220746f20416c696365206661696c656400006044820152fd5b906020608492519162461bcd60e51b8352820152602260248201527f4854434c3a2054696d656c6f636b20686173206e6f7420657870697265642079604482015261195d60f21b6064820152fd5b906020608492519162461bcd60e51b8352820152602760248201527f4854434c3a204f6e6c7920416c6963652063616e2063616c6c207468697320666044820152663ab731ba34b7b760c91b6064820152fd5b8280fd5b90503461049857602036600319011261049857602092508151838101913582528381526104c88161077d565b5190209051907f0000000000000000000000000000000000000000000000000000000000000000148152f35b5050346100e057816003193601126100e05751478152602090f35b84908434610498576020938460031936011261072d577f00000000000000000000000000000000000000000000000000000000000000006001600160a01b031692813590338590036106de57507f00000000000000000000000000000000000000000000000000000000000000004210156106915761058f471515610731565b8251868101908282528781526105a48161077d565b5190207f0000000000000000000000000000000000000000000000000000000000000000036106585747918580808086895af16105df6107af565b501561061557507e3019633028d81edf58f587c3396250338e5a4db99f1e77b3c38e08d57baf709394958351928352820152a280f35b835162461bcd60e51b8152908101879052601c60248201527f4854434c3a205472616e7366657220746f20426f62206661696c6564000000006044820152606490fd5b5084606492519162461bcd60e51b83528201526014602482015273121510d30e88125b9d985b1a59081cd958dc995d60621b6044820152fd5b5084608492519162461bcd60e51b8352820152602260248201527f4854434c3a2054696d656c6f636b2068617320616c7265616479206578706972604482015261195960f21b6064820152fd5b62461bcd60e51b8152828101879052602560248201527f4854434c3a204f6e6c7920426f622063616e2063616c6c20746869732066756e60448201526431ba34b7b760d91b6064820152608490fd5b8380fd5b1561073857565b60405162461bcd60e51b815260206004820152601a60248201527f4854434c3a204e6f2066756e647320746f2077697468647261770000000000006044820152606490fd5b6040810190811067ffffffffffffffff82111761079957604052565b634e487b7160e01b600052604160045260246000fd5b3d156107f55767ffffffffffffffff903d8281116107995760405192601f8201601f19908116603f01168401908111848210176107995760405282523d6000602084013e565b60609056fea26469706673582212203198f08d7d1b352d881dd850bfa42c25d0f3805c72b9cb345b66cd5de4a9a20b64736f6c63430008130033",
  "linkReferences": {},
  "deployedLinkReferences": {}
}